{
  "_format": "hh-sol-artifact-1",
  "contractName": "MockUSDC",
  "sourceName": "src/MockUSDC.sol",
  "abi": [
    {
      "inputs": [
        {
          "internalType": "address",
          "name": "initialOwner",
          "type": "address"
        }
      ],
      "stateMutability": "nonpayable",
      "type": "constructor"
    },
    {
      "inputs": [
        {
          "internalType": "address",
          "name": "spender",
          "type": "address"
        },
        {
          "internalType": "uint256",
          "name": "allowance",
          "type": "uint256"
        },
        {
          "internalType": "uint256",
          "name": "needed",
          "type": "uint256"
        }
      ],
      "name": "ERC20InsufficientAllowance",
      "type": "error"
    },
    {
      "inputs": [
        {
          "internalType": "address",
          "name": "sender",
          "type": "address"
        },
        {
          "internalType": "uint256",
          "name": "balance",
          "type": "uint256"
        },
        {
          "internalType": "uint256",
          "name": "needed",
          "type": "uint256"
        }
      ],
      "name": "ERC20InsufficientBalance",
      "type": "error"
    },
    {
      "inputs": [
        {
          "internalType": "address",
          "name": "approver",
          "type": "address"
        }
      ],
      "name": "ERC20InvalidApprover",
      "type": "error"
    },
    {
      "inputs": [
        {
          "internalType": "address",
          "name": "receiver",
          "type": "address"
        }
      ],
      "name": "ERC20InvalidReceiver",
      "type": "error"
    },
    {
      "inputs": [
        {
          "internalType": "address",
          "name": "sender",
          "type": "address"
        }
      ],
      "name": "ERC20InvalidSender",
      "type": "error"
    },
    {
      "inputs": [
        {
          "internalType": "address",
          "name": "spender",
          "type": "address"
        }
      ],
      "name": "ERC20InvalidSpender",
      "type": "error"
    },
    {
      "inputs": [
        {
          "internalType": "address",
          "name": "owner",
          "type": "address"
        }
      ],
      "name": "OwnableInvalidOwner",
      "type": "error"
    },
    {
      "inputs": [
        {
          "internalType": "address",
          "name": "account",
          "type": "address"
        }
      ],
      "name": "OwnableUnauthorizedAccount",
      "type": "error"
    },
    {
      "anonymous": false,
      "inputs": [
        {
          "indexed": true,
          "internalType": "address",
          "name": "owner",
          "type": "address"
        },
        {
          "indexed": true,
          "internalType": "address",
          "name": "spender",
          "type": "address"
        },
        {
          "indexed": false,
          "internalType": "uint256",
          "name": "value",
          "type": "uint256"
        }
      ],
      "name": "Approval",
      "type": "event"
    },
    {
      "anonymous": false,
      "inputs": [
        {
          "indexed": true,
          "internalType": "address",
          "name": "recipient",
          "type": "address"
        },
        {
          "indexed": false,
          "internalType": "uint256",
          "name": "amount",
          "type": "uint256"
        }
      ],
      "name": "FaucetDrip",
      "type": "event"
    },
    {
      "anonymous": false,
      "inputs": [
        {
          "indexed": true,
          "internalType": "address",
          "name": "previousOwner",
          "type": "address"
        },
        {
          "indexed": true,
          "internalType": "address",
          "name": "newOwner",
          "type": "address"
        }
      ],
      "name": "OwnershipTransferred",
      "type": "event"
    },
    {
      "anonymous": false,
      "inputs": [
        {
          "indexed": true,
          "internalType": "address",
          "name": "from",
          "type": "address"
        },
        {
          "indexed": true,
          "internalType": "address",
          "name": "to",
          "type": "address"
        },
        {
          "indexed": false,
          "internalType": "uint256",
          "name": "value",
          "type": "uint256"
        }
      ],
      "name": "Transfer",
      "type": "event"
    },
    {
      "inputs": [],
      "name": "FAUCET_AMOUNT",
      "outputs": [
        {
          "internalType": "uint256",
          "name": "",
          "type": "uint256"
        }
      ],
      "stateMutability": "view",
      "type": "function"
    },
    {
      "inputs": [
        {
          "internalType": "address",
          "name": "owner",
          "type": "address"
        },
        {
          "internalType": "address",
          "name": "spender",
          "type": "address"
        }
      ],
      "name": "allowance",
      "outputs": [
        {
          "internalType": "uint256",
          "name": "",
          "type": "uint256"
        }
      ],
      "stateMutability": "view",
      "type": "function"
    },
    {
      "inputs": [
        {
          "internalType": "address",
          "name": "spender",
          "type": "address"
        },
        {
          "internalType": "uint256",
          "name": "value",
          "type": "uint256"
        }
      ],
      "name": "approve",
      "outputs": [
        {
          "internalType": "bool",
          "name": "",
          "type": "bool"
        }
      ],
      "stateMutability": "nonpayable",
      "type": "function"
    },
    {
      "inputs": [
        {
          "internalType": "address",
          "name": "account",
          "type": "address"
        }
      ],
      "name": "balanceOf",
      "outputs": [
        {
          "internalType": "uint256",
          "name": "",
          "type": "uint256"
        }
      ],
      "stateMutability": "view",
      "type": "function"
    },
    {
      "inputs": [],
      "name": "decimals",
      "outputs": [
        {
          "internalType": "uint8",
          "name": "",
          "type": "uint8"
        }
      ],
      "stateMutability": "pure",
      "type": "function"
    },
    {
      "inputs": [],
      "name": "faucet",
      "outputs": [],
      "stateMutability": "nonpayable",
      "type": "function"
    },
    {
      "inputs": [],
      "name": "faucetCooldown",
      "outputs": [
        {
          "internalType": "uint256",
          "name": "",
          "type": "uint256"
        }
      ],
      "stateMutability": "view",
      "type": "function"
    },
    {
      "inputs": [
        {
          "internalType": "address",
          "name": "",
          "type": "address"
        }
      ],
      "name": "lastFaucetTime",
      "outputs": [
        {
          "internalType": "uint256",
          "name": "",
          "type": "uint256"
        }
      ],
      "stateMutability": "view",
      "type": "function"
    },
    {
      "inputs": [
        {
          "internalType": "address",
          "name": "to",
          "type": "address"
        },
        {
          "internalType": "uint256",
          "name": "amount",
          "type": "uint256"
        }
      ],
      "name": "mint",
      "outputs": [],
      "stateMutability": "nonpayable",
      "type": "function"
    },
    {
      "inputs": [],
      "name": "name",
      "outputs": [
        {
          "internalType": "string",
          "name": "",
          "type": "string"
        }
      ],
      "stateMutability": "view",
      "type": "function"
    },
    {
      "inputs": [],
      "name": "owner",
      "outputs": [
        {
          "internalType": "address",
          "name": "",
          "type": "address"
        }
      ],
      "stateMutability": "view",
      "type": "function"
    },
    {
      "inputs": [],
      "name": "renounceOwnership",
      "outputs": [],
      "stateMutability": "nonpayable",
      "type": "function"
    },
    {
      "inputs": [
        {
          "internalType": "uint256",
          "name": "seconds_",
          "type": "uint256"
        }
      ],
      "name": "setCooldown",
      "outputs": [],
      "stateMutability": "nonpayable",
      "type": "function"
    },
    {
      "inputs": [],
      "name": "symbol",
      "outputs": [
        {
          "internalType": "string",
          "name": "",
          "type": "string"
        }
      ],
      "stateMutability": "view",
      "type": "function"
    },
    {
      "inputs": [],
      "name": "totalSupply",
      "outputs": [
        {
          "internalType": "uint256",
          "name": "",
          "type": "uint256"
        }
      ],
      "stateMutability": "view",
      "type": "function"
    },
    {
      "inputs": [
        {
          "internalType": "address",
          "name": "to",
          "type": "address"
        },
        {
          "internalType": "uint256",
          "name": "value",
          "type": "uint256"
        }
      ],
      "name": "transfer",
      "outputs": [
        {
          "internalType": "bool",
          "name": "",
          "type": "bool"
        }
      ],
      "stateMutability": "nonpayable",
      "type": "function"
    },
    {
      "inputs": [
        {
          "internalType": "address",
          "name": "from",
          "type": "address"
        },
        {
          "internalType": "address",
          "name": "to",
          "type": "address"
        },
        {
          "internalType": "uint256",
          "name": "value",
          "type": "uint256"
        }
      ],
      "name": "transferFrom",
      "outputs": [
        {
          "internalType": "bool",
          "name": "",
          "type": "bool"
        }
      ],
      "stateMutability": "nonpayable",
      "type": "function"
    },
    {
      "inputs": [
        {
          "internalType": "address",
          "name": "newOwner",
          "type": "address"
        }
      ],
      "name": "transferOwnership",
      "outputs": [],
      "stateMutability": "nonpayable",
      "type": "function"
    }
  ],
  "bytecode": "0x60806040526201518060075534801562000017575f80fd5b5060405162000fd738038062000fd78339810160408190526200003a91620002cc565b806040518060400160405280601281526020017155534420436f696e2028546573746e65742960701b815250604051806040016040528060048152602001635553444360e01b815250816003908162000094919062000399565b506004620000a3828262000399565b5050506001600160a01b038116620000d557604051631e4fbdf760e01b81525f60048201526024015b60405180910390fd5b620000e08162000110565b506200010981620000f46006600a62000574565b6200010390620f424062000584565b62000161565b50620005b4565b600580546001600160a01b038381166001600160a01b0319831681179093556040519116919082907f8be0079c531659141344cd1fd0a4f28419497f9722a3daafe3b4186f6b6457e0905f90a35050565b6001600160a01b0382166200018c5760405163ec442f0560e01b81525f6004820152602401620000cc565b620001995f83836200019d565b5050565b6001600160a01b038316620001cb578060025f828254620001bf91906200059e565b909155506200023d9050565b6001600160a01b0383165f90815260208190526040902054818110156200021f5760405163391434e360e21b81526001600160a01b03851660048201526024810182905260448101839052606401620000cc565b6001600160a01b0384165f9081526020819052604090209082900390555b6001600160a01b0382166200025b5760028054829003905562000279565b6001600160a01b0382165f9081526020819052604090208054820190555b816001600160a01b0316836001600160a01b03167fddf252ad1be2c89b69c2b068fc378daa952ba7f163c4a11628f55a4df523b3ef83604051620002bf91815260200190565b60405180910390a3505050565b5f60208284031215620002dd575f80fd5b81516001600160a01b0381168114620002f4575f80fd5b9392505050565b634e487b7160e01b5f52604160045260245ffd5b600181811c908216806200032457607f821691505b6020821081036200034357634e487b7160e01b5f52602260045260245ffd5b50919050565b601f8211156200039457805f5260205f20601f840160051c81016020851015620003705750805b601f840160051c820191505b8181101562000391575f81556001016200037c565b50505b505050565b81516001600160401b03811115620003b557620003b5620002fb565b620003cd81620003c684546200030f565b8462000349565b602080601f83116001811462000403575f8415620003eb5750858301515b5f19600386901b1c1916600185901b1785556200045d565b5f85815260208120601f198616915b82811015620004335788860151825594840194600190910190840162000412565b50858210156200045157878501515f19600388901b60f8161c191681555b505060018460011b0185555b505050505050565b634e487b7160e01b5f52601160045260245ffd5b600181815b80851115620004b957815f19048211156200049d576200049d62000465565b80851615620004ab57918102915b93841c93908002906200047e565b509250929050565b5f82620004d1575060016200056e565b81620004df57505f6200056e565b8160018114620004f85760028114620005035762000523565b60019150506200056e565b60ff84111562000517576200051762000465565b50506001821b6200056e565b5060208310610133831016604e8410600b841016171562000548575081810a6200056e565b62000554838362000479565b805f19048211156200056a576200056a62000465565b0290505b92915050565b5f620002f460ff841683620004c1565b80820281158282048414176200056e576200056e62000465565b808201808211156200056e576200056e62000465565b610a1580620005c25f395ff3fe608060405234801561000f575f80fd5b5060043610610111575f3560e01c8063766976401161009e57806395d89b411161006e57806395d89b4114610230578063a9059cbb14610238578063dd62ed3e1461024b578063de5f72fd14610283578063f2fde38b1461028b575f80fd5b806376697640146101e25780637bc1f6cc146101ed5780637e36320b1461020c5780638da5cb5b14610215575f80fd5b8063313ce567116100e4578063313ce5671461017b57806340c10f191461018a5780634fc3f41a1461019f57806370a08231146101b2578063715018a6146101da575f80fd5b806306fdde0314610115578063095ea7b31461013357806318160ddd1461015657806323b872dd14610168575b5f80fd5b61011d61029e565b60405161012a9190610858565b60405180910390f35b6101466101413660046108bf565b61032e565b604051901515815260200161012a565b6002545b60405190815260200161012a565b6101466101763660046108e7565b610347565b6040516006815260200161012a565b61019d6101983660046108bf565b61036a565b005b61019d6101ad366004610920565b610380565b61015a6101c0366004610937565b6001600160a01b03165f9081526020819052604090205490565b61019d61038d565b61015a6305f5e10081565b61015a6101fb366004610937565b60066020525f908152604090205481565b61015a60075481565b6005546040516001600160a01b03909116815260200161012a565b61011d6103a0565b6101466102463660046108bf565b6103af565b61015a610259366004610957565b6001600160a01b039182165f90815260016020908152604080832093909416825291909152205490565b61019d6103bc565b61019d610299366004610937565b610486565b6060600380546102ad90610988565b80601f01602080910402602001604051908101604052809291908181526020018280546102d990610988565b80156103245780601f106102fb57610100808354040283529160200191610324565b820191905f5260205f20905b81548152906001019060200180831161030757829003601f168201915b5050505050905090565b5f3361033b8185856104c3565b60019150505b92915050565b5f336103548582856104d5565b61035f858585610551565b506001949350505050565b6103726105ae565b61037c82826105db565b5050565b6103886105ae565b600755565b6103956105ae565b61039e5f61060f565b565b6060600480546102ad90610988565b5f3361033b818585610551565b600754335f908152600660205260409020546103d891906109c0565b42101561042c5760405162461bcd60e51b815260206004820152601960248201527f4d6f636b555344433a20636f6f6c646f776e206163746976650000000000000060448201526064015b60405180910390fd5b335f81815260066020526040902042905561044b906305f5e1006105db565b6040516305f5e100815233907fb8b38c7e9fbb92ce0241165f02d8dbdb1736143b1da1de0cd2cd096505e47f459060200160405180910390a2565b61048e6105ae565b6001600160a01b0381166104b757604051631e4fbdf760e01b81525f6004820152602401610423565b6104c08161060f565b50565b6104d08383836001610660565b505050565b6001600160a01b038381165f908152600160209081526040808320938616835292905220545f1981101561054b578181101561053d57604051637dc7a0d960e11b81526001600160a01b03841660048201526024810182905260448101839052606401610423565b61054b84848484035f610660565b50505050565b6001600160a01b03831661057a57604051634b637e8f60e11b81525f6004820152602401610423565b6001600160a01b0382166105a35760405163ec442f0560e01b81525f6004820152602401610423565b6104d0838383610732565b6005546001600160a01b0316331461039e5760405163118cdaa760e01b8152336004820152602401610423565b6001600160a01b0382166106045760405163ec442f0560e01b81525f6004820152602401610423565b61037c5f8383610732565b600580546001600160a01b038381166001600160a01b0319831681179093556040519116919082907f8be0079c531659141344cd1fd0a4f28419497f9722a3daafe3b4186f6b6457e0905f90a35050565b6001600160a01b0384166106895760405163e602df0560e01b81525f6004820152602401610423565b6001600160a01b0383166106b257604051634a1406b160e11b81525f6004820152602401610423565b6001600160a01b038085165f908152600160209081526040808320938716835292905220829055801561054b57826001600160a01b0316846001600160a01b03167f8c5be1e5ebec7d5bd14f71427d1e84f3dd0314c0f7b2291e5b200ac8c7c3b9258460405161072491815260200190565b60405180910390a350505050565b6001600160a01b03831661075c578060025f82825461075191906109c0565b909155506107cc9050565b6001600160a01b0383165f90815260208190526040902054818110156107ae5760405163391434e360e21b81526001600160a01b03851660048201526024810182905260448101839052606401610423565b6001600160a01b0384165f9081526020819052604090209082900390555b6001600160a01b0382166107e857600280548290039055610806565b6001600160a01b0382165f9081526020819052604090208054820190555b816001600160a01b0316836001600160a01b03167fddf252ad1be2c89b69c2b068fc378daa952ba7f163c4a11628f55a4df523b3ef8360405161084b91815260200190565b60405180910390a3505050565b5f602080835283518060208501525f5b8181101561088457858101830151858201604001528201610868565b505f604082860101526040601f19601f8301168501019250505092915050565b80356001600160a01b03811681146108ba575f80fd5b919050565b5f80604083850312156108d0575f80fd5b6108d9836108a4565b946020939093013593505050565b5f805f606084860312156108f9575f80fd5b610902846108a4565b9250610910602085016108a4565b9150604084013590509250925092565b5f60208284031215610930575f80fd5b5035919050565b5f60208284031215610947575f80fd5b610950826108a4565b9392505050565b5f8060408385031215610968575f80fd5b610971836108a4565b915061097f602084016108a4565b90509250929050565b600181811c9082168061099c57607f821691505b6020821081036109ba57634e487b7160e01b5f52602260045260245ffd5b50919050565b8082018082111561034157634e487b7160e01b5f52601160045260245ffdfea26469706673582212209e8f4f89a397eeb94777ebeeabe2f95d830c6a0866e5fc4551f58bf653dd3ca164736f6c63430008180033",
  "linkReferences": {},
  "deployedLinkReferences": {}
}