{"src/RoarVault.sol":{"RoarVault":{"abi":[{"inputs":[{"internalType":"address","name":"_usdc","type":"address"},{"internalType":"address","name":"_platformWallet","type":"address"},{"internalType":"uint256","name":"_pricePerSecond","type":"uint256"},{"internalType":"address","name":"_owner","type":"address"}],"stateMutability":"nonpayable","type":"constructor"},{"inputs":[{"internalType":"address","name":"owner","type":"address"}],"name":"OwnableInvalidOwner","type":"error"},{"inputs":[{"internalType":"address","name":"account","type":"address"}],"name":"OwnableUnauthorizedAccount","type":"error"},{"inputs":[],"name":"ReentrancyGuardReentrantCall","type":"error"},{"inputs":[{"internalType":"address","name":"token","type":"address"}],"name":"SafeERC20FailedOperation","type":"error"},{"anonymous":false,"inputs":[{"indexed":true,"internalType":"address","name":"creator","type":"address"},{"indexed":false,"internalType":"uint256","name":"amount","type":"uint256"}],"name":"CreatorWithdrawal","type":"event"},{"anonymous":false,"inputs":[{"indexed":true,"internalType":"address","name":"user","type":"address"},{"indexed":false,"internalType":"uint256","name":"amount","type":"uint256"}],"name":"Deposited","type":"event"},{"anonymous":false,"inputs":[{"indexed":false,"internalType":"uint256","name":"newTotal","type":"uint256"}],"name":"FanRewardPoolAccrued","type":"event"},{"anonymous":false,"inputs":[{"indexed":true,"internalType":"address","name":"previousOwner","type":"address"},{"indexed":true,"internalType":"address","name":"newOwner","type":"address"}],"name":"OwnershipTransferred","type":"event"},{"anonymous":false,"inputs":[{"indexed":true,"internalType":"address","name":"viewer","type":"address"},{"indexed":true,"internalType":"address","name":"creator","type":"address"},{"indexed":true,"internalType":"bytes32","name":"videoHash","type":"bytes32"},{"indexed":false,"internalType":"uint256","name":"billableSeconds","type":"uint256"},{"indexed":false,"internalType":"uint256","name":"totalAmount","type":"uint256"},{"indexed":false,"internalType":"uint256","name":"creatorShare","type":"uint256"},{"indexed":false,"internalType":"uint256","name":"platformShare","type":"uint256"},{"indexed":false,"internalType":"uint256","name":"rewardPoolShare","type":"uint256"}],"name":"SessionSettled","type":"event"},{"anonymous":false,"inputs":[{"indexed":true,"internalType":"address","name":"settler","type":"address"},{"indexed":false,"internalType":"bool","name":"authorized","type":"bool"}],"name":"SettlerUpdated","type":"event"},{"anonymous":false,"inputs":[{"indexed":true,"internalType":"address","name":"viewer","type":"address"},{"indexed":false,"internalType":"uint256","name":"amount","type":"uint256"}],"name":"ViewerWithdrawal","type":"event"},{"inputs":[],"name":"creatorBps","outputs":[{"internalType":"uint256","name":"","type":"uint256"}],"stateMutability":"view","type":"function"},{"inputs":[{"internalType":"address","name":"","type":"address"}],"name":"creatorEarnings","outputs":[{"internalType":"uint256","name":"","type":"uint256"}],"stateMutability":"view","type":"function"},{"inputs":[{"internalType":"uint256","name":"amount","type":"uint256"}],"name":"deposit","outputs":[],"stateMutability":"nonpayable","type":"function"},{"inputs":[],"name":"fanRewardsPool","outputs":[{"internalType":"uint256","name":"","type":"uint256"}],"stateMutability":"view","type":"function"},{"inputs":[],"name":"owner","outputs":[{"internalType":"address","name":"","type":"address"}],"stateMutability":"view","type":"function"},{"inputs":[],"name":"platformBps","outputs":[{"internalType":"uint256","name":"","type":"uint256"}],"stateMutability":"view","type":"function"},{"inputs":[],"name":"platformRevenue","outputs":[{"internalType":"uint256","name":"","type":"uint256"}],"stateMutability":"view","type":"function"},{"inputs":[],"name":"platformWallet","outputs":[{"internalType":"address","name":"","type":"address"}],"stateMutability":"view","type":"function"},{"inputs":[],"name":"pricePerSecond","outputs":[{"internalType":"uint256","name":"","type":"uint256"}],"stateMutability":"view","type":"function"},{"inputs":[],"name":"renounceOwnership","outputs":[],"stateMutability":"nonpayable","type":"function"},{"inputs":[],"name":"rewardPoolBps","outputs":[{"internalType":"uint256","name":"","type":"uint256"}],"stateMutability":"view","type":"function"},{"inputs":[{"internalType":"address","name":"_platformWallet","type":"address"}],"name":"setPlatformWallet","outputs":[],"stateMutability":"nonpayable","type":"function"},{"inputs":[{"internalType":"uint256","name":"_price","type":"uint256"}],"name":"setPricePerSecond","outputs":[],"stateMutability":"nonpayable","type":"function"},{"inputs":[{"internalType":"address","name":"settler","type":"address"},{"internalType":"bool","name":"authorized","type":"bool"}],"name":"setSettler","outputs":[],"stateMutability":"nonpayable","type":"function"},{"inputs":[{"internalType":"uint256","name":"_creatorBps","type":"uint256"},{"internalType":"uint256","name":"_platformBps","type":"uint256"},{"internalType":"uint256","name":"_rewardBps","type":"uint256"}],"name":"setSplits","outputs":[],"stateMutability":"nonpayable","type":"function"},{"inputs":[{"internalType":"address","name":"viewer","type":"address"},{"internalType":"address","name":"creator","type":"address"},{"internalType":"bytes32","name":"videoHash","type":"bytes32"},{"internalType":"uint256","name":"billableSeconds","type":"uint256"}],"name":"settleSession","outputs":[],"stateMutability":"nonpayable","type":"function"},{"inputs":[{"internalType":"address","name":"","type":"address"}],"name":"settlers","outputs":[{"internalType":"bool","name":"","type":"bool"}],"stateMutability":"view","type":"function"},{"inputs":[{"internalType":"address","name":"newOwner","type":"address"}],"name":"transferOwnership","outputs":[],"stateMutability":"nonpayable","type":"function"},{"inputs":[],"name":"usdc","outputs":[{"internalType":"contract IERC20","name":"","type":"address"}],"stateMutability":"view","type":"function"},{"inputs":[{"internalType":"address","name":"","type":"address"}],"name":"userBalance","outputs":[{"internalType":"uint256","name":"","type":"uint256"}],"stateMutability":"view","type":"function"},{"inputs":[],"name":"withdrawCreatorEarnings","outputs":[],"stateMutability":"nonpayable","type":"function"},{"inputs":[],"name":"withdrawPlatformRevenue","outputs":[],"stateMutability":"nonpayable","type":"function"},{"inputs":[],"name":"withdrawUnusedBalance","outputs":[],"stateMutability":"nonpayable","type":"function"}],"evm":{"bytecode":{"linkReferences":{},"object":"60a06040526121346003556101f46004556103e8600555348015610021575f80fd5b50604051610fc6380380610fc683398101604081905261004091610136565b8060017f9b779b17422d0df92223018b32b4d1fa46e071723d6817e2486d003becc55f00556001600160a01b03811661009257604051631e4fbdf760e01b81525f600482015260240160405180910390fd5b61009b816100cc565b50506001600160a01b03928316608052600180546001600160a01b0319169290931691909117909155600255610180565b5f80546001600160a01b038381166001600160a01b0319831681178455604051919092169283917f8be0079c531659141344cd1fd0a4f28419497f9722a3daafe3b4186f6b6457e09190a35050565b80516001600160a01b0381168114610131575f80fd5b919050565b5f805f8060808587031215610149575f80fd5b6101528561011b565b93506101606020860161011b565b9250604085015191506101756060860161011b565b905092959194509250565b608051610e126101b45f395f81816101aa0152818161070e015281816107b4015281816108c601526109b40152610e125ff3fe608060405234801561000f575f80fd5b5060043610610148575f3560e01c80638da5cb5b116100bf578063e312e9bb11610079578063e312e9bb146102af578063e3a99259146102b8578063f2fde38b146102c0578063f76835e6146102d3578063fa2af9da146102dc578063fa3c30a8146102ef575f80fd5b80638da5cb5b14610236578063a9e99c5414610246578063b6b55f2514610259578063c70a900f1461026c578063caca95cc1461029e578063de90e29b146102a6575f80fd5b80633f84cfec116101105780633f84cfec146101e4578063700cd48e146101ed578063715018a61461020057806377a35465146102085780638831e9cf1461021b5780638906af481461022e575f80fd5b80630103c92b1461014c5780630ee05de21461017e57806324048ba1146101935780633804fd1f1461019c5780633e413bee146101a5575b5f80fd5b61016b61015a366004610c6e565b60066020525f908152604090205481565b6040519081526020015b60405180910390f35b61019161018c366004610c8e565b61030e565b005b61016b60085481565b61016b60025481565b6101cc7f000000000000000000000000000000000000000000000000000000000000000081565b6040516001600160a01b039091168152602001610175565b61016b60095481565b6101916101fb366004610ccd565b61059a565b610191610609565b610191610216366004610cf6565b61061c565b610191610229366004610c6e565b610682565b6101916106ac565b5f546001600160a01b03166101cc565b610191610254366004610d2f565b61074e565b610191610267366004610d2f565b61075b565b61028e61027a366004610c6e565b600a6020525f908152604090205460ff1681565b6040519015158152602001610175565b61019161084d565b61016b60035481565b61016b60055481565b610191610942565b6101916102ce366004610c6e565b610a15565b61016b60045481565b6001546101cc906001600160a01b031681565b61016b6102fd366004610c6e565b60076020525f908152604090205481565b335f908152600a602052604090205460ff168061033457505f546001600160a01b031633145b61037e5760405162461bcd60e51b81526020600482015260166024820152752737ba1030baba3437b934bd32b21039b2ba3a3632b960511b60448201526064015b60405180910390fd5b610386610a4f565b5f600254826103959190610d5a565b6001600160a01b0386165f908152600660205260409020549091508111156103ff5760405162461bcd60e51b815260206004820152601b60248201527f496e73756666696369656e74207669657765722062616c616e636500000000006044820152606401610375565b5f612710600354836104119190610d5a565b61041b9190610d77565b90505f6127106004548461042f9190610d5a565b6104399190610d77565b90505f816104478486610d96565b6104519190610d96565b6001600160a01b0389165f9081526006602052604081208054929350869290919061047d908490610d96565b90915550506001600160a01b0387165f90815260076020526040812080548592906104a9908490610da9565b925050819055508160085f8282546104c19190610da9565b925050819055508060095f8282546104d99190610da9565b90915550506040805186815260208101869052908101849052606081018390526080810182905286906001600160a01b03808a1691908b16907fda6e8c05568b7a0b08f91e77da53feb8660e992af0055ef6335f05ca396c28749060a00160405180910390a47f0ce9ecd422a5a084e8bab74ea5b9a349c23b76a3cd73fd2f1291e6c8c0d2a81a60095460405161057291815260200190565b60405180910390a15050505061059460015f80516020610dbd83398151915255565b50505050565b6105a2610a6a565b806105ad8385610da9565b6105b79190610da9565b612710146105fb5760405162461bcd60e51b815260206004820152601160248201527004d7573742073756d20746f20313030303607c1b6044820152606401610375565b600392909255600455600555565b610611610a6a565b61061a5f610a96565b565b610624610a6a565b6001600160a01b0382165f818152600a6020908152604091829020805460ff191685151590811790915591519182527f2410c863eb19e919623967dc3a49115d8231a2285293ee2af1b1808b6bbcfdb4910160405180910390a25050565b61068a610a6a565b600180546001600160a01b0319166001600160a01b0392909216919091179055565b6106b4610a6a565b6106bc610a4f565b600854806106f95760405162461bcd60e51b815260206004820152600a6024820152694e6f20726576656e756560b01b6044820152606401610375565b5f600855600154610737906001600160a01b037f00000000000000000000000000000000000000000000000000000000000000008116911683610ae5565b5061061a60015f80516020610dbd83398151915255565b610756610a6a565b600255565b610763610a4f565b5f81116107a75760405162461bcd60e51b81526020600482015260126024820152710416d6f756e74206d757374206265203e20360741b6044820152606401610375565b6107dc6001600160a01b037f000000000000000000000000000000000000000000000000000000000000000016333084610b1f565b335f90815260066020526040812080548392906107fa908490610da9565b909155505060405181815233907f2da466a7b24304f47e87fa2e1e5a81b9831ce54fec19055ce277ca2f39ba42c49060200160405180910390a261084a60015f80516020610dbd83398151915255565b50565b610855610a4f565b335f90815260076020526040902054806108b15760405162461bcd60e51b815260206004820152601760248201527f4e6f206561726e696e677320746f2077697468647261770000000000000000006044820152606401610375565b335f818152600760205260408120556108f5907f00000000000000000000000000000000000000000000000000000000000000006001600160a01b03169083610ae5565b60405181815233907f0d53b74a6cb6d1fbd9dc6dc1d7714036c7c6a3f48350103a7011041eb32a4c5e906020015b60405180910390a25061061a60015f80516020610dbd83398151915255565b61094a610a4f565b335f908152600660205260409020548061099f5760405162461bcd60e51b81526020600482015260166024820152754e6f2062616c616e636520746f20776974686472617760501b6044820152606401610375565b335f818152600660205260408120556109e3907f00000000000000000000000000000000000000000000000000000000000000006001600160a01b03169083610ae5565b60405181815233907fc2e414a0f4912b1970ebfd8179919351e7a54c6407a3df7e278214ce1a0ebea690602001610923565b610a1d610a6a565b6001600160a01b038116610a4657604051631e4fbdf760e01b81525f6004820152602401610375565b61084a81610a96565b610a57610b55565b60025f80516020610dbd83398151915255565b5f546001600160a01b0316331461061a5760405163118cdaa760e01b8152336004820152602401610375565b5f80546001600160a01b038381166001600160a01b0319831681178455604051919092169283917f8be0079c531659141344cd1fd0a4f28419497f9722a3daafe3b4186f6b6457e09190a35050565b610af28383836001610b84565b610b1a57604051635274afe760e01b81526001600160a01b0384166004820152602401610375565b505050565b610b2d848484846001610be6565b61059457604051635274afe760e01b81526001600160a01b0385166004820152602401610375565b5f80516020610dbd8339815191525460020361061a57604051633ee5aeb560e01b815260040160405180910390fd5b60405163a9059cbb60e01b5f8181526001600160a01b038616600452602485905291602083604481808b5af1925060015f51148316610bda578383151615610bce573d5f823e3d81fd5b5f873b113d1516831692505b60405250949350505050565b6040516323b872dd60e01b5f8181526001600160a01b038781166004528616602452604485905291602083606481808c5af1925060015f51148316610c42578383151615610c36573d5f823e3d81fd5b5f883b113d1516831692505b604052505f60605295945050505050565b80356001600160a01b0381168114610c69575f80fd5b919050565b5f60208284031215610c7e575f80fd5b610c8782610c53565b9392505050565b5f805f8060808587031215610ca1575f80fd5b610caa85610c53565b9350610cb860208601610c53565b93969395505050506040820135916060013590565b5f805f60608486031215610cdf575f80fd5b505081359360208301359350604090920135919050565b5f8060408385031215610d07575f80fd5b610d1083610c53565b915060208301358015158114610d24575f80fd5b809150509250929050565b5f60208284031215610d3f575f80fd5b5035919050565b634e487b7160e01b5f52601160045260245ffd5b8082028115828204841417610d7157610d71610d46565b92915050565b5f82610d9157634e487b7160e01b5f52601260045260245ffd5b500490565b81810381811115610d7157610d71610d46565b80820180821115610d7157610d71610d4656fe9b779b17422d0df92223018b32b4d1fa46e071723d6817e2486d003becc55f00a264697066735822122020f6385af94f537e1ce4a64abb45d53ca8bdd04715e590db65f9941b9921762b64736f6c63430008180033","opcodes":"PUSH1 0xA0 PUSH1 0x40 MSTORE PUSH2 0x2134 PUSH1 0x3 SSTORE PUSH2 0x1F4 PUSH1 0x4 SSTORE PUSH2 0x3E8 PUSH1 0x5 SSTORE CALLVALUE DUP1 ISZERO PUSH2 0x21 JUMPI PUSH0 DUP1 REVERT JUMPDEST POP PUSH1 0x40 MLOAD PUSH2 0xFC6 CODESIZE SUB DUP1 PUSH2 0xFC6 DUP4 CODECOPY DUP2 ADD PUSH1 0x40 DUP2 SWAP1 MSTORE PUSH2 0x40 SWAP2 PUSH2 0x136 JUMP JUMPDEST DUP1 PUSH1 0x1 PUSH32 0x9B779B17422D0DF92223018B32B4D1FA46E071723D6817E2486D003BECC55F00 SSTORE PUSH1 0x1 PUSH1 0x1 PUSH1 0xA0 SHL SUB DUP2 AND PUSH2 0x92 JUMPI PUSH1 0x40 MLOAD PUSH4 0x1E4FBDF7 PUSH1 0xE0 SHL DUP2 MSTORE PUSH0 PUSH1 0x4 DUP3 ADD MSTORE PUSH1 0x24 ADD PUSH1 0x40 MLOAD DUP1 SWAP2 SUB SWAP1 REVERT JUMPDEST PUSH2 0x9B DUP2 PUSH2 0xCC JUMP JUMPDEST POP POP PUSH1 0x1 PUSH1 0x1 PUSH1 0xA0 SHL SUB SWAP3 DUP4 AND PUSH1 0x80 MSTORE PUSH1 0x1 DUP1 SLOAD PUSH1 0x1 PUSH1 0x1 PUSH1 0xA0 SHL SUB NOT AND SWAP3 SWAP1 SWAP4 AND SWAP2 SWAP1 SWAP2 OR SWAP1 SWAP2 SSTORE PUSH1 0x2 SSTORE PUSH2 0x180 JUMP JUMPDEST PUSH0 DUP1 SLOAD PUSH1 0x1 PUSH1 0x1 PUSH1 0xA0 SHL SUB DUP4 DUP2 AND PUSH1 0x1 PUSH1 0x1 PUSH1 0xA0 SHL SUB NOT DUP4 AND DUP2 OR DUP5 SSTORE PUSH1 0x40 MLOAD SWAP2 SWAP1 SWAP3 AND SWAP3 DUP4 SWAP2 PUSH32 0x8BE0079C531659141344CD1FD0A4F28419497F9722A3DAAFE3B4186F6B6457E0 SWAP2 SWAP1 LOG3 POP POP JUMP JUMPDEST DUP1 MLOAD PUSH1 0x1 PUSH1 0x1 PUSH1 0xA0 SHL SUB DUP2 AND DUP2 EQ PUSH2 0x131 JUMPI PUSH0 DUP1 REVERT JUMPDEST SWAP2 SWAP1 POP JUMP JUMPDEST PUSH0 DUP1 PUSH0 DUP1 PUSH1 0x80 DUP6 DUP8 SUB SLT ISZERO PUSH2 0x149 JUMPI PUSH0 DUP1 REVERT JUMPDEST PUSH2 0x152 DUP6 PUSH2 0x11B JUMP JUMPDEST SWAP4 POP PUSH2 0x160 PUSH1 0x20 DUP7 ADD PUSH2 0x11B JUMP JUMPDEST SWAP3 POP PUSH1 0x40 DUP6 ADD MLOAD SWAP2 POP PUSH2 0x175 PUSH1 0x60 DUP7 ADD PUSH2 0x11B JUMP JUMPDEST SWAP1 POP SWAP3 SWAP6 SWAP2 SWAP5 POP SWAP3 POP JUMP JUMPDEST PUSH1 0x80 MLOAD PUSH2 0xE12 PUSH2 0x1B4 PUSH0 CODECOPY PUSH0 DUP2 DUP2 PUSH2 0x1AA ADD MSTORE DUP2 DUP2 PUSH2 0x70E ADD MSTORE DUP2 DUP2 PUSH2 0x7B4 ADD MSTORE DUP2 DUP2 PUSH2 0x8C6 ADD MSTORE PUSH2 0x9B4 ADD MSTORE PUSH2 0xE12 PUSH0 RETURN INVALID PUSH1 0x80 PUSH1 0x40 MSTORE CALLVALUE DUP1 ISZERO PUSH2 0xF JUMPI PUSH0 DUP1 REVERT JUMPDEST POP PUSH1 0x4 CALLDATASIZE LT PUSH2 0x148 JUMPI PUSH0 CALLDATALOAD PUSH1 0xE0 SHR DUP1 PUSH4 0x8DA5CB5B GT PUSH2 0xBF JUMPI DUP1 PUSH4 0xE312E9BB GT PUSH2 0x79 JUMPI DUP1 PUSH4 0xE312E9BB EQ PUSH2 0x2AF JUMPI DUP1 PUSH4 0xE3A99259 EQ PUSH2 0x2B8 JUMPI DUP1 PUSH4 0xF2FDE38B EQ PUSH2 0x2C0 JUMPI DUP1 PUSH4 0xF76835E6 EQ PUSH2 0x2D3 JUMPI DUP1 PUSH4 0xFA2AF9DA EQ PUSH2 0x2DC JUMPI DUP1 PUSH4 0xFA3C30A8 EQ PUSH2 0x2EF JUMPI PUSH0 DUP1 REVERT JUMPDEST DUP1 PUSH4 0x8DA5CB5B EQ PUSH2 0x236 JUMPI DUP1 PUSH4 0xA9E99C54 EQ PUSH2 0x246 JUMPI DUP1 PUSH4 0xB6B55F25 EQ PUSH2 0x259 JUMPI DUP1 PUSH4 0xC70A900F EQ PUSH2 0x26C JUMPI DUP1 PUSH4 0xCACA95CC EQ PUSH2 0x29E JUMPI DUP1 PUSH4 0xDE90E29B EQ PUSH2 0x2A6 JUMPI PUSH0 DUP1 REVERT JUMPDEST DUP1 PUSH4 0x3F84CFEC GT PUSH2 0x110 JUMPI DUP1 PUSH4 0x3F84CFEC EQ PUSH2 0x1E4 JUMPI DUP1 PUSH4 0x700CD48E EQ PUSH2 0x1ED JUMPI DUP1 PUSH4 0x715018A6 EQ PUSH2 0x200 JUMPI DUP1 PUSH4 0x77A35465 EQ PUSH2 0x208 JUMPI DUP1 PUSH4 0x8831E9CF EQ PUSH2 0x21B JUMPI DUP1 PUSH4 0x8906AF48 EQ PUSH2 0x22E JUMPI PUSH0 DUP1 REVERT JUMPDEST DUP1 PUSH4 0x103C92B EQ PUSH2 0x14C JUMPI DUP1 PUSH4 0xEE05DE2 EQ PUSH2 0x17E JUMPI DUP1 PUSH4 0x24048BA1 EQ PUSH2 0x193 JUMPI DUP1 PUSH4 0x3804FD1F EQ PUSH2 0x19C JUMPI DUP1 PUSH4 0x3E413BEE EQ PUSH2 0x1A5 JUMPI JUMPDEST PUSH0 DUP1 REVERT JUMPDEST PUSH2 0x16B PUSH2 0x15A CALLDATASIZE PUSH1 0x4 PUSH2 0xC6E JUMP JUMPDEST PUSH1 0x6 PUSH1 0x20 MSTORE PUSH0 SWAP1 DUP2 MSTORE PUSH1 0x40 SWAP1 KECCAK256 SLOAD DUP2 JUMP JUMPDEST PUSH1 0x40 MLOAD SWAP1 DUP2 MSTORE PUSH1 0x20 ADD JUMPDEST PUSH1 0x40 MLOAD DUP1 SWAP2 SUB SWAP1 RETURN JUMPDEST PUSH2 0x191 PUSH2 0x18C CALLDATASIZE PUSH1 0x4 PUSH2 0xC8E JUMP JUMPDEST PUSH2 0x30E JUMP JUMPDEST STOP JUMPDEST PUSH2 0x16B PUSH1 0x8 SLOAD DUP2 JUMP JUMPDEST PUSH2 0x16B PUSH1 0x2 SLOAD DUP2 JUMP JUMPDEST PUSH2 0x1CC PUSH32 0x0 DUP2 JUMP JUMPDEST PUSH1 0x40 MLOAD PUSH1 0x1 PUSH1 0x1 PUSH1 0xA0 SHL SUB SWAP1 SWAP2 AND DUP2 MSTORE PUSH1 0x20 ADD PUSH2 0x175 JUMP JUMPDEST PUSH2 0x16B PUSH1 0x9 SLOAD DUP2 JUMP JUMPDEST PUSH2 0x191 PUSH2 0x1FB CALLDATASIZE PUSH1 0x4 PUSH2 0xCCD JUMP JUMPDEST PUSH2 0x59A JUMP JUMPDEST PUSH2 0x191 PUSH2 0x609 JUMP JUMPDEST PUSH2 0x191 PUSH2 0x216 CALLDATASIZE PUSH1 0x4 PUSH2 0xCF6 JUMP JUMPDEST PUSH2 0x61C JUMP JUMPDEST PUSH2 0x191 PUSH2 0x229 CALLDATASIZE PUSH1 0x4 PUSH2 0xC6E JUMP JUMPDEST PUSH2 0x682 JUMP JUMPDEST PUSH2 0x191 PUSH2 0x6AC JUMP JUMPDEST PUSH0 SLOAD PUSH1 0x1 PUSH1 0x1 PUSH1 0xA0 SHL SUB AND PUSH2 0x1CC JUMP JUMPDEST PUSH2 0x191 PUSH2 0x254 CALLDATASIZE PUSH1 0x4 PUSH2 0xD2F JUMP JUMPDEST PUSH2 0x74E JUMP JUMPDEST PUSH2 0x191 PUSH2 0x267 CALLDATASIZE PUSH1 0x4 PUSH2 0xD2F JUMP JUMPDEST PUSH2 0x75B JUMP JUMPDEST PUSH2 0x28E PUSH2 0x27A CALLDATASIZE PUSH1 0x4 PUSH2 0xC6E JUMP JUMPDEST PUSH1 0xA PUSH1 0x20 MSTORE PUSH0 SWAP1 DUP2 MSTORE PUSH1 0x40 SWAP1 KECCAK256 SLOAD PUSH1 0xFF AND DUP2 JUMP JUMPDEST PUSH1 0x40 MLOAD SWAP1 ISZERO ISZERO DUP2 MSTORE PUSH1 0x20 ADD PUSH2 0x175 JUMP JUMPDEST PUSH2 0x191 PUSH2 0x84D JUMP JUMPDEST PUSH2 0x16B PUSH1 0x3 SLOAD DUP2 JUMP JUMPDEST PUSH2 0x16B PUSH1 0x5 SLOAD DUP2 JUMP JUMPDEST PUSH2 0x191 PUSH2 0x942 JUMP JUMPDEST PUSH2 0x191 PUSH2 0x2CE CALLDATASIZE PUSH1 0x4 PUSH2 0xC6E JUMP JUMPDEST PUSH2 0xA15 JUMP JUMPDEST PUSH2 0x16B PUSH1 0x4 SLOAD DUP2 JUMP JUMPDEST PUSH1 0x1 SLOAD PUSH2 0x1CC SWAP1 PUSH1 0x1 PUSH1 0x1 PUSH1 0xA0 SHL SUB AND DUP2 JUMP JUMPDEST PUSH2 0x16B PUSH2 0x2FD CALLDATASIZE PUSH1 0x4 PUSH2 0xC6E JUMP JUMPDEST PUSH1 0x7 PUSH1 0x20 MSTORE PUSH0 SWAP1 DUP2 MSTORE PUSH1 0x40 SWAP1 KECCAK256 SLOAD DUP2 JUMP JUMPDEST CALLER PUSH0 SWAP1 DUP2 MSTORE PUSH1 0xA PUSH1 0x20 MSTORE PUSH1 0x40 SWAP1 KECCAK256 SLOAD PUSH1 0xFF AND DUP1 PUSH2 0x334 JUMPI POP PUSH0 SLOAD PUSH1 0x1 PUSH1 0x1 PUSH1 0xA0 SHL SUB AND CALLER EQ JUMPDEST PUSH2 0x37E JUMPI PUSH1 0x40 MLOAD PUSH3 0x461BCD PUSH1 0xE5 SHL DUP2 MSTORE PUSH1 0x20 PUSH1 0x4 DUP3 ADD MSTORE PUSH1 0x16 PUSH1 0x24 DUP3 ADD MSTORE PUSH22 0x2737BA1030BABA3437B934BD32B21039B2BA3A3632B9 PUSH1 0x51 SHL PUSH1 0x44 DUP3 ADD MSTORE PUSH1 0x64 ADD JUMPDEST PUSH1 0x40 MLOAD DUP1 SWAP2 SUB SWAP1 REVERT JUMPDEST PUSH2 0x386 PUSH2 0xA4F JUMP JUMPDEST PUSH0 PUSH1 0x2 SLOAD DUP3 PUSH2 0x395 SWAP2 SWAP1 PUSH2 0xD5A JUMP JUMPDEST PUSH1 0x1 PUSH1 0x1 PUSH1 0xA0 SHL SUB DUP7 AND PUSH0 SWAP1 DUP2 MSTORE PUSH1 0x6 PUSH1 0x20 MSTORE PUSH1 0x40 SWAP1 KECCAK256 SLOAD SWAP1 SWAP2 POP DUP2 GT ISZERO PUSH2 0x3FF JUMPI PUSH1 0x40 MLOAD PUSH3 0x461BCD PUSH1 0xE5 SHL DUP2 MSTORE PUSH1 0x20 PUSH1 0x4 DUP3 ADD MSTORE PUSH1 0x1B PUSH1 0x24 DUP3 ADD MSTORE PUSH32 0x496E73756666696369656E74207669657765722062616C616E63650000000000 PUSH1 0x44 DUP3 ADD MSTORE PUSH1 0x64 ADD PUSH2 0x375 JUMP JUMPDEST PUSH0 PUSH2 0x2710 PUSH1 0x3 SLOAD DUP4 PUSH2 0x411 SWAP2 SWAP1 PUSH2 0xD5A JUMP JUMPDEST PUSH2 0x41B SWAP2 SWAP1 PUSH2 0xD77 JUMP JUMPDEST SWAP1 POP PUSH0 PUSH2 0x2710 PUSH1 0x4 SLOAD DUP5 PUSH2 0x42F SWAP2 SWAP1 PUSH2 0xD5A JUMP JUMPDEST PUSH2 0x439 SWAP2 SWAP1 PUSH2 0xD77 JUMP JUMPDEST SWAP1 POP PUSH0 DUP2 PUSH2 0x447 DUP5 DUP7 PUSH2 0xD96 JUMP JUMPDEST PUSH2 0x451 SWAP2 SWAP1 PUSH2 0xD96 JUMP JUMPDEST PUSH1 0x1 PUSH1 0x1 PUSH1 0xA0 SHL SUB DUP10 AND PUSH0 SWAP1 DUP2 MSTORE PUSH1 0x6 PUSH1 0x20 MSTORE PUSH1 0x40 DUP2 KECCAK256 DUP1 SLOAD SWAP3 SWAP4 POP DUP7 SWAP3 SWAP1 SWAP2 SWAP1 PUSH2 0x47D SWAP1 DUP5 SWAP1 PUSH2 0xD96 JUMP JUMPDEST SWAP1 SWAP2 SSTORE POP POP PUSH1 0x1 PUSH1 0x1 PUSH1 0xA0 SHL SUB DUP8 AND PUSH0 SWAP1 DUP2 MSTORE PUSH1 0x7 PUSH1 0x20 MSTORE PUSH1 0x40 DUP2 KECCAK256 DUP1 SLOAD DUP6 SWAP3 SWAP1 PUSH2 0x4A9 SWAP1 DUP5 SWAP1 PUSH2 0xDA9 JUMP JUMPDEST SWAP3 POP POP DUP2 SWAP1 SSTORE POP DUP2 PUSH1 0x8 PUSH0 DUP3 DUP3 SLOAD PUSH2 0x4C1 SWAP2 SWAP1 PUSH2 0xDA9 JUMP JUMPDEST SWAP3 POP POP DUP2 SWAP1 SSTORE POP DUP1 PUSH1 0x9 PUSH0 DUP3 DUP3 SLOAD PUSH2 0x4D9 SWAP2 SWAP1 PUSH2 0xDA9 JUMP JUMPDEST SWAP1 SWAP2 SSTORE POP POP PUSH1 0x40 DUP1 MLOAD DUP7 DUP2 MSTORE PUSH1 0x20 DUP2 ADD DUP7 SWAP1 MSTORE SWAP1 DUP2 ADD DUP5 SWAP1 MSTORE PUSH1 0x60 DUP2 ADD DUP4 SWAP1 MSTORE PUSH1 0x80 DUP2 ADD DUP3 SWAP1 MSTORE DUP7 SWAP1 PUSH1 0x1 PUSH1 0x1 PUSH1 0xA0 SHL SUB DUP1 DUP11 AND SWAP2 SWAP1 DUP12 AND SWAP1 PUSH32 0xDA6E8C05568B7A0B08F91E77DA53FEB8660E992AF0055EF6335F05CA396C2874 SWAP1 PUSH1 0xA0 ADD PUSH1 0x40 MLOAD DUP1 SWAP2 SUB SWAP1 LOG4 PUSH32 0xCE9ECD422A5A084E8BAB74EA5B9A349C23B76A3CD73FD2F1291E6C8C0D2A81A PUSH1 0x9 SLOAD PUSH1 0x40 MLOAD PUSH2 0x572 SWAP2 DUP2 MSTORE PUSH1 0x20 ADD SWAP1 JUMP JUMPDEST PUSH1 0x40 MLOAD DUP1 SWAP2 SUB SWAP1 LOG1 POP POP POP POP PUSH2 0x594 PUSH1 0x1 PUSH0 DUP1 MLOAD PUSH1 0x20 PUSH2 0xDBD DUP4 CODECOPY DUP2 MLOAD SWAP2 MSTORE SSTORE JUMP JUMPDEST POP POP POP POP JUMP JUMPDEST PUSH2 0x5A2 PUSH2 0xA6A JUMP JUMPDEST DUP1 PUSH2 0x5AD DUP4 DUP6 PUSH2 0xDA9 JUMP JUMPDEST PUSH2 0x5B7 SWAP2 SWAP1 PUSH2 0xDA9 JUMP JUMPDEST PUSH2 0x2710 EQ PUSH2 0x5FB JUMPI PUSH1 0x40 MLOAD PUSH3 0x461BCD PUSH1 0xE5 SHL DUP2 MSTORE PUSH1 0x20 PUSH1 0x4 DUP3 ADD MSTORE PUSH1 0x11 PUSH1 0x24 DUP3 ADD MSTORE PUSH17 0x4D7573742073756D20746F20313030303 PUSH1 0x7C SHL PUSH1 0x44 DUP3 ADD MSTORE PUSH1 0x64 ADD PUSH2 0x375 JUMP JUMPDEST PUSH1 0x3 SWAP3 SWAP1 SWAP3 SSTORE PUSH1 0x4 SSTORE PUSH1 0x5 SSTORE JUMP JUMPDEST PUSH2 0x611 PUSH2 0xA6A JUMP JUMPDEST PUSH2 0x61A PUSH0 PUSH2 0xA96 JUMP JUMPDEST JUMP JUMPDEST PUSH2 0x624 PUSH2 0xA6A JUMP JUMPDEST PUSH1 0x1 PUSH1 0x1 PUSH1 0xA0 SHL SUB DUP3 AND PUSH0 DUP2 DUP2 MSTORE PUSH1 0xA PUSH1 0x20 SWAP1 DUP2 MSTORE PUSH1 0x40 SWAP2 DUP3 SWAP1 KECCAK256 DUP1 SLOAD PUSH1 0xFF NOT AND DUP6 ISZERO ISZERO SWAP1 DUP2 OR SWAP1 SWAP2 SSTORE SWAP2 MLOAD SWAP2 DUP3 MSTORE PUSH32 0x2410C863EB19E919623967DC3A49115D8231A2285293EE2AF1B1808B6BBCFDB4 SWAP2 ADD PUSH1 0x40 MLOAD DUP1 SWAP2 SUB SWAP1 LOG2 POP POP JUMP JUMPDEST PUSH2 0x68A PUSH2 0xA6A JUMP JUMPDEST PUSH1 0x1 DUP1 SLOAD PUSH1 0x1 PUSH1 0x1 PUSH1 0xA0 SHL SUB NOT AND PUSH1 0x1 PUSH1 0x1 PUSH1 0xA0 SHL SUB SWAP3 SWAP1 SWAP3 AND SWAP2 SWAP1 SWAP2 OR SWAP1 SSTORE JUMP JUMPDEST PUSH2 0x6B4 PUSH2 0xA6A JUMP JUMPDEST PUSH2 0x6BC PUSH2 0xA4F JUMP JUMPDEST PUSH1 0x8 SLOAD DUP1 PUSH2 0x6F9 JUMPI PUSH1 0x40 MLOAD PUSH3 0x461BCD PUSH1 0xE5 SHL DUP2 MSTORE PUSH1 0x20 PUSH1 0x4 DUP3 ADD MSTORE PUSH1 0xA PUSH1 0x24 DUP3 ADD MSTORE PUSH10 0x4E6F20726576656E7565 PUSH1 0xB0 SHL PUSH1 0x44 DUP3 ADD MSTORE PUSH1 0x64 ADD PUSH2 0x375 JUMP JUMPDEST PUSH0 PUSH1 0x8 SSTORE PUSH1 0x1 SLOAD PUSH2 0x737 SWAP1 PUSH1 0x1 PUSH1 0x1 PUSH1 0xA0 SHL SUB PUSH32 0x0 DUP2 AND SWAP2 AND DUP4 PUSH2 0xAE5 JUMP JUMPDEST POP PUSH2 0x61A PUSH1 0x1 PUSH0 DUP1 MLOAD PUSH1 0x20 PUSH2 0xDBD DUP4 CODECOPY DUP2 MLOAD SWAP2 MSTORE SSTORE JUMP JUMPDEST PUSH2 0x756 PUSH2 0xA6A JUMP JUMPDEST PUSH1 0x2 SSTORE JUMP JUMPDEST PUSH2 0x763 PUSH2 0xA4F JUMP JUMPDEST PUSH0 DUP2 GT PUSH2 0x7A7 JUMPI PUSH1 0x40 MLOAD PUSH3 0x461BCD PUSH1 0xE5 SHL DUP2 MSTORE PUSH1 0x20 PUSH1 0x4 DUP3 ADD MSTORE PUSH1 0x12 PUSH1 0x24 DUP3 ADD MSTORE PUSH18 0x416D6F756E74206D757374206265203E203 PUSH1 0x74 SHL PUSH1 0x44 DUP3 ADD MSTORE PUSH1 0x64 ADD PUSH2 0x375 JUMP JUMPDEST PUSH2 0x7DC PUSH1 0x1 PUSH1 0x1 PUSH1 0xA0 SHL SUB PUSH32 0x0 AND CALLER ADDRESS DUP5 PUSH2 0xB1F JUMP JUMPDEST CALLER PUSH0 SWAP1 DUP2 MSTORE PUSH1 0x6 PUSH1 0x20 MSTORE PUSH1 0x40 DUP2 KECCAK256 DUP1 SLOAD DUP4 SWAP3 SWAP1 PUSH2 0x7FA SWAP1 DUP5 SWAP1 PUSH2 0xDA9 JUMP JUMPDEST SWAP1 SWAP2 SSTORE POP POP PUSH1 0x40 MLOAD DUP2 DUP2 MSTORE CALLER SWAP1 PUSH32 0x2DA466A7B24304F47E87FA2E1E5A81B9831CE54FEC19055CE277CA2F39BA42C4 SWAP1 PUSH1 0x20 ADD PUSH1 0x40 MLOAD DUP1 SWAP2 SUB SWAP1 LOG2 PUSH2 0x84A PUSH1 0x1 PUSH0 DUP1 MLOAD PUSH1 0x20 PUSH2 0xDBD DUP4 CODECOPY DUP2 MLOAD SWAP2 MSTORE SSTORE JUMP JUMPDEST POP JUMP JUMPDEST PUSH2 0x855 PUSH2 0xA4F JUMP JUMPDEST CALLER PUSH0 SWAP1 DUP2 MSTORE PUSH1 0x7 PUSH1 0x20 MSTORE PUSH1 0x40 SWAP1 KECCAK256 SLOAD DUP1 PUSH2 0x8B1 JUMPI PUSH1 0x40 MLOAD PUSH3 0x461BCD PUSH1 0xE5 SHL DUP2 MSTORE PUSH1 0x20 PUSH1 0x4 DUP3 ADD MSTORE PUSH1 0x17 PUSH1 0x24 DUP3 ADD MSTORE PUSH32 0x4E6F206561726E696E677320746F207769746864726177000000000000000000 PUSH1 0x44 DUP3 ADD MSTORE PUSH1 0x64 ADD PUSH2 0x375 JUMP JUMPDEST CALLER PUSH0 DUP2 DUP2 MSTORE PUSH1 0x7 PUSH1 0x20 MSTORE PUSH1 0x40 DUP2 KECCAK256 SSTORE PUSH2 0x8F5 SWAP1 PUSH32 0x0 PUSH1 0x1 PUSH1 0x1 PUSH1 0xA0 SHL SUB AND SWAP1 DUP4 PUSH2 0xAE5 JUMP JUMPDEST PUSH1 0x40 MLOAD DUP2 DUP2 MSTORE CALLER SWAP1 PUSH32 0xD53B74A6CB6D1FBD9DC6DC1D7714036C7C6A3F48350103A7011041EB32A4C5E SWAP1 PUSH1 0x20 ADD JUMPDEST PUSH1 0x40 MLOAD DUP1 SWAP2 SUB SWAP1 LOG2 POP PUSH2 0x61A PUSH1 0x1 PUSH0 DUP1 MLOAD PUSH1 0x20 PUSH2 0xDBD DUP4 CODECOPY DUP2 MLOAD SWAP2 MSTORE SSTORE JUMP JUMPDEST PUSH2 0x94A PUSH2 0xA4F JUMP JUMPDEST CALLER PUSH0 SWAP1 DUP2 MSTORE PUSH1 0x6 PUSH1 0x20 MSTORE PUSH1 0x40 SWAP1 KECCAK256 SLOAD DUP1 PUSH2 0x99F JUMPI PUSH1 0x40 MLOAD PUSH3 0x461BCD PUSH1 0xE5 SHL DUP2 MSTORE PUSH1 0x20 PUSH1 0x4 DUP3 ADD MSTORE PUSH1 0x16 PUSH1 0x24 DUP3 ADD MSTORE PUSH22 0x4E6F2062616C616E636520746F207769746864726177 PUSH1 0x50 SHL PUSH1 0x44 DUP3 ADD MSTORE PUSH1 0x64 ADD PUSH2 0x375 JUMP JUMPDEST CALLER PUSH0 DUP2 DUP2 MSTORE PUSH1 0x6 PUSH1 0x20 MSTORE PUSH1 0x40 DUP2 KECCAK256 SSTORE PUSH2 0x9E3 SWAP1 PUSH32 0x0 PUSH1 0x1 PUSH1 0x1 PUSH1 0xA0 SHL SUB AND SWAP1 DUP4 PUSH2 0xAE5 JUMP JUMPDEST PUSH1 0x40 MLOAD DUP2 DUP2 MSTORE CALLER SWAP1 PUSH32 0xC2E414A0F4912B1970EBFD8179919351E7A54C6407A3DF7E278214CE1A0EBEA6 SWAP1 PUSH1 0x20 ADD PUSH2 0x923 JUMP JUMPDEST PUSH2 0xA1D PUSH2 0xA6A JUMP JUMPDEST PUSH1 0x1 PUSH1 0x1 PUSH1 0xA0 SHL SUB DUP2 AND PUSH2 0xA46 JUMPI PUSH1 0x40 MLOAD PUSH4 0x1E4FBDF7 PUSH1 0xE0 SHL DUP2 MSTORE PUSH0 PUSH1 0x4 DUP3 ADD MSTORE PUSH1 0x24 ADD PUSH2 0x375 JUMP JUMPDEST PUSH2 0x84A DUP2 PUSH2 0xA96 JUMP JUMPDEST PUSH2 0xA57 PUSH2 0xB55 JUMP JUMPDEST PUSH1 0x2 PUSH0 DUP1 MLOAD PUSH1 0x20 PUSH2 0xDBD DUP4 CODECOPY DUP2 MLOAD SWAP2 MSTORE SSTORE JUMP JUMPDEST PUSH0 SLOAD PUSH1 0x1 PUSH1 0x1 PUSH1 0xA0 SHL SUB AND CALLER EQ PUSH2 0x61A JUMPI PUSH1 0x40 MLOAD PUSH4 0x118CDAA7 PUSH1 0xE0 SHL DUP2 MSTORE CALLER PUSH1 0x4 DUP3 ADD MSTORE PUSH1 0x24 ADD PUSH2 0x375 JUMP JUMPDEST PUSH0 DUP1 SLOAD PUSH1 0x1 PUSH1 0x1 PUSH1 0xA0 SHL SUB DUP4 DUP2 AND PUSH1 0x1 PUSH1 0x1 PUSH1 0xA0 SHL SUB NOT DUP4 AND DUP2 OR DUP5 SSTORE PUSH1 0x40 MLOAD SWAP2 SWAP1 SWAP3 AND SWAP3 DUP4 SWAP2 PUSH32 0x8BE0079C531659141344CD1FD0A4F28419497F9722A3DAAFE3B4186F6B6457E0 SWAP2 SWAP1 LOG3 POP POP JUMP JUMPDEST PUSH2 0xAF2 DUP4 DUP4 DUP4 PUSH1 0x1 PUSH2 0xB84 JUMP JUMPDEST PUSH2 0xB1A JUMPI PUSH1 0x40 MLOAD PUSH4 0x5274AFE7 PUSH1 0xE0 SHL DUP2 MSTORE PUSH1 0x1 PUSH1 0x1 PUSH1 0xA0 SHL SUB DUP5 AND PUSH1 0x4 DUP3 ADD MSTORE PUSH1 0x24 ADD PUSH2 0x375 JUMP JUMPDEST POP POP POP JUMP JUMPDEST PUSH2 0xB2D DUP5 DUP5 DUP5 DUP5 PUSH1 0x1 PUSH2 0xBE6 JUMP JUMPDEST PUSH2 0x594 JUMPI PUSH1 0x40 MLOAD PUSH4 0x5274AFE7 PUSH1 0xE0 SHL DUP2 MSTORE PUSH1 0x1 PUSH1 0x1 PUSH1 0xA0 SHL SUB DUP6 AND PUSH1 0x4 DUP3 ADD MSTORE PUSH1 0x24 ADD PUSH2 0x375 JUMP JUMPDEST PUSH0 DUP1 MLOAD PUSH1 0x20 PUSH2 0xDBD DUP4 CODECOPY DUP2 MLOAD SWAP2 MSTORE SLOAD PUSH1 0x2 SUB PUSH2 0x61A JUMPI PUSH1 0x40 MLOAD PUSH4 0x3EE5AEB5 PUSH1 0xE0 SHL DUP2 MSTORE PUSH1 0x4 ADD PUSH1 0x40 MLOAD DUP1 SWAP2 SUB SWAP1 REVERT JUMPDEST PUSH1 0x40 MLOAD PUSH4 0xA9059CBB PUSH1 0xE0 SHL PUSH0 DUP2 DUP2 MSTORE PUSH1 0x1 PUSH1 0x1 PUSH1 0xA0 SHL SUB DUP7 AND PUSH1 0x4 MSTORE PUSH1 0x24 DUP6 SWAP1 MSTORE SWAP2 PUSH1 0x20 DUP4 PUSH1 0x44 DUP2 DUP1 DUP12 GAS CALL SWAP3 POP PUSH1 0x1 PUSH0 MLOAD EQ DUP4 AND PUSH2 0xBDA JUMPI DUP4 DUP4 ISZERO AND ISZERO PUSH2 0xBCE JUMPI RETURNDATASIZE PUSH0 DUP3 RETURNDATACOPY RETURNDATASIZE DUP2 REVERT JUMPDEST PUSH0 DUP8 EXTCODESIZE GT RETURNDATASIZE ISZERO AND DUP4 AND SWAP3 POP JUMPDEST PUSH1 0x40 MSTORE POP SWAP5 SWAP4 POP POP POP POP JUMP JUMPDEST PUSH1 0x40 MLOAD PUSH4 0x23B872DD PUSH1 0xE0 SHL PUSH0 DUP2 DUP2 MSTORE PUSH1 0x1 PUSH1 0x1 PUSH1 0xA0 SHL SUB DUP8 DUP2 AND PUSH1 0x4 MSTORE DUP7 AND PUSH1 0x24 MSTORE PUSH1 0x44 DUP6 SWAP1 MSTORE SWAP2 PUSH1 0x20 DUP4 PUSH1 0x64 DUP2 DUP1 DUP13 GAS CALL SWAP3 POP PUSH1 0x1 PUSH0 MLOAD EQ DUP4 AND PUSH2 0xC42 JUMPI DUP4 DUP4 ISZERO AND ISZERO PUSH2 0xC36 JUMPI RETURNDATASIZE PUSH0 DUP3 RETURNDATACOPY RETURNDATASIZE DUP2 REVERT JUMPDEST PUSH0 DUP9 EXTCODESIZE GT RETURNDATASIZE ISZERO AND DUP4 AND SWAP3 POP JUMPDEST PUSH1 0x40 MSTORE POP PUSH0 PUSH1 0x60 MSTORE SWAP6 SWAP5 POP POP POP POP POP JUMP JUMPDEST DUP1 CALLDATALOAD PUSH1 0x1 PUSH1 0x1 PUSH1 0xA0 SHL SUB DUP2 AND DUP2 EQ PUSH2 0xC69 JUMPI PUSH0 DUP1 REVERT JUMPDEST SWAP2 SWAP1 POP JUMP JUMPDEST PUSH0 PUSH1 0x20 DUP3 DUP5 SUB SLT ISZERO PUSH2 0xC7E JUMPI PUSH0 DUP1 REVERT JUMPDEST PUSH2 0xC87 DUP3 PUSH2 0xC53 JUMP JUMPDEST SWAP4 SWAP3 POP POP POP JUMP JUMPDEST PUSH0 DUP1 PUSH0 DUP1 PUSH1 0x80 DUP6 DUP8 SUB SLT ISZERO PUSH2 0xCA1 JUMPI PUSH0 DUP1 REVERT JUMPDEST PUSH2 0xCAA DUP6 PUSH2 0xC53 JUMP JUMPDEST SWAP4 POP PUSH2 0xCB8 PUSH1 0x20 DUP7 ADD PUSH2 0xC53 JUMP JUMPDEST SWAP4 SWAP7 SWAP4 SWAP6 POP POP POP POP PUSH1 0x40 DUP3 ADD CALLDATALOAD SWAP2 PUSH1 0x60 ADD CALLDATALOAD SWAP1 JUMP JUMPDEST PUSH0 DUP1 PUSH0 PUSH1 0x60 DUP5 DUP7 SUB SLT ISZERO PUSH2 0xCDF JUMPI PUSH0 DUP1 REVERT JUMPDEST POP POP DUP2 CALLDATALOAD SWAP4 PUSH1 0x20 DUP4 ADD CALLDATALOAD SWAP4 POP PUSH1 0x40 SWAP1 SWAP3 ADD CALLDATALOAD SWAP2 SWAP1 POP JUMP JUMPDEST PUSH0 DUP1 PUSH1 0x40 DUP4 DUP6 SUB SLT ISZERO PUSH2 0xD07 JUMPI PUSH0 DUP1 REVERT JUMPDEST PUSH2 0xD10 DUP4 PUSH2 0xC53 JUMP JUMPDEST SWAP2 POP PUSH1 0x20 DUP4 ADD CALLDATALOAD DUP1 ISZERO ISZERO DUP2 EQ PUSH2 0xD24 JUMPI PUSH0 DUP1 REVERT JUMPDEST DUP1 SWAP2 POP POP SWAP3 POP SWAP3 SWAP1 POP JUMP JUMPDEST PUSH0 PUSH1 0x20 DUP3 DUP5 SUB SLT ISZERO PUSH2 0xD3F JUMPI PUSH0 DUP1 REVERT JUMPDEST POP CALLDATALOAD SWAP2 SWAP1 POP JUMP JUMPDEST PUSH4 0x4E487B71 PUSH1 0xE0 SHL PUSH0 MSTORE PUSH1 0x11 PUSH1 0x4 MSTORE PUSH1 0x24 PUSH0 REVERT JUMPDEST DUP1 DUP3 MUL DUP2 ISZERO DUP3 DUP3 DIV DUP5 EQ OR PUSH2 0xD71 JUMPI PUSH2 0xD71 PUSH2 0xD46 JUMP JUMPDEST SWAP3 SWAP2 POP POP JUMP JUMPDEST PUSH0 DUP3 PUSH2 0xD91 JUMPI PUSH4 0x4E487B71 PUSH1 0xE0 SHL PUSH0 MSTORE PUSH1 0x12 PUSH1 0x4 MSTORE PUSH1 0x24 PUSH0 REVERT JUMPDEST POP DIV SWAP1 JUMP JUMPDEST DUP2 DUP2 SUB DUP2 DUP2 GT ISZERO PUSH2 0xD71 JUMPI PUSH2 0xD71 PUSH2 0xD46 JUMP JUMPDEST DUP1 DUP3 ADD DUP1 DUP3 GT ISZERO PUSH2 0xD71 JUMPI PUSH2 0xD71 PUSH2 0xD46 JUMP INVALID SWAP12 PUSH24 0x9B17422D0DF92223018B32B4D1FA46E071723D6817E2486D STOP EXTCODESIZE 0xEC 0xC5 PUSH0 STOP LOG2 PUSH5 0x6970667358 0x22 SLT KECCAK256 KECCAK256 0xF6 CODESIZE GAS 0xF9 0x4F MSTORE8 PUSH31 0x1CE4A64ABB45D53CA8BDD04715E590DB65F9941B9921762B64736F6C634300 ADDMOD XOR STOP CALLER "},"methodIdentifiers":{"creatorBps()":"de90e29b","creatorEarnings(address)":"fa3c30a8","deposit(uint256)":"b6b55f25","fanRewardsPool()":"3f84cfec","owner()":"8da5cb5b","platformBps()":"f76835e6","platformRevenue()":"24048ba1","platformWallet()":"fa2af9da","pricePerSecond()":"3804fd1f","renounceOwnership()":"715018a6","rewardPoolBps()":"e312e9bb","setPlatformWallet(address)":"8831e9cf","setPricePerSecond(uint256)":"a9e99c54","setSettler(address,bool)":"77a35465","setSplits(uint256,uint256,uint256)":"700cd48e","settleSession(address,address,bytes32,uint256)":"0ee05de2","settlers(address)":"c70a900f","transferOwnership(address)":"f2fde38b","usdc()":"3e413bee","userBalance(address)":"0103c92b","withdrawCreatorEarnings()":"caca95cc","withdrawPlatformRevenue()":"8906af48","withdrawUnusedBalance()":"e3a99259"}}}}}