{
  "_format": "hh-sol-artifact-1",
  "contractName": "RoarballVault",
  "sourceName": "src/RoarballVault.sol",
  "abi": [
    {
      "inputs": [
        {
          "internalType": "address",
          "name": "_usdc",
          "type": "address"
        },
        {
          "internalType": "address",
          "name": "_treasury",
          "type": "address"
        },
        {
          "internalType": "address",
          "name": "_fanRewardsPool",
          "type": "address"
        },
        {
          "internalType": "address",
          "name": "_settler",
          "type": "address"
        }
      ],
      "stateMutability": "nonpayable",
      "type": "constructor"
    },
    {
      "inputs": [],
      "name": "ECDSAInvalidSignature",
      "type": "error"
    },
    {
      "inputs": [
        {
          "internalType": "uint256",
          "name": "length",
          "type": "uint256"
        }
      ],
      "name": "ECDSAInvalidSignatureLength",
      "type": "error"
    },
    {
      "inputs": [
        {
          "internalType": "bytes32",
          "name": "s",
          "type": "bytes32"
        }
      ],
      "name": "ECDSAInvalidSignatureS",
      "type": "error"
    },
    {
      "inputs": [],
      "name": "InvalidShortString",
      "type": "error"
    },
    {
      "inputs": [
        {
          "internalType": "address",
          "name": "owner",
          "type": "address"
        }
      ],
      "name": "OwnableInvalidOwner",
      "type": "error"
    },
    {
      "inputs": [
        {
          "internalType": "address",
          "name": "account",
          "type": "address"
        }
      ],
      "name": "OwnableUnauthorizedAccount",
      "type": "error"
    },
    {
      "inputs": [],
      "name": "ReentrancyGuardReentrantCall",
      "type": "error"
    },
    {
      "inputs": [
        {
          "internalType": "address",
          "name": "token",
          "type": "address"
        }
      ],
      "name": "SafeERC20FailedOperation",
      "type": "error"
    },
    {
      "inputs": [
        {
          "internalType": "string",
          "name": "str",
          "type": "string"
        }
      ],
      "name": "StringTooLong",
      "type": "error"
    },
    {
      "anonymous": false,
      "inputs": [
        {
          "indexed": true,
          "internalType": "address",
          "name": "creator",
          "type": "address"
        },
        {
          "indexed": false,
          "internalType": "uint256",
          "name": "amount",
          "type": "uint256"
        }
      ],
      "name": "CreatorClaimed",
      "type": "event"
    },
    {
      "anonymous": false,
      "inputs": [],
      "name": "EIP712DomainChanged",
      "type": "event"
    },
    {
      "anonymous": false,
      "inputs": [
        {
          "indexed": true,
          "internalType": "address",
          "name": "previousOwner",
          "type": "address"
        },
        {
          "indexed": true,
          "internalType": "address",
          "name": "newOwner",
          "type": "address"
        }
      ],
      "name": "OwnershipTransferred",
      "type": "event"
    },
    {
      "anonymous": false,
      "inputs": [
        {
          "indexed": true,
          "internalType": "address",
          "name": "previous",
          "type": "address"
        },
        {
          "indexed": true,
          "internalType": "address",
          "name": "next",
          "type": "address"
        }
      ],
      "name": "SettlerUpdated",
      "type": "event"
    },
    {
      "anonymous": false,
      "inputs": [
        {
          "indexed": true,
          "internalType": "address",
          "name": "user",
          "type": "address"
        },
        {
          "indexed": true,
          "internalType": "address",
          "name": "creator",
          "type": "address"
        },
        {
          "indexed": false,
          "internalType": "uint256",
          "name": "totalOwed",
          "type": "uint256"
        },
        {
          "indexed": false,
          "internalType": "uint256",
          "name": "creatorCut",
          "type": "uint256"
        },
        {
          "indexed": false,
          "internalType": "uint256",
          "name": "fanCut",
          "type": "uint256"
        },
        {
          "indexed": false,
          "internalType": "uint256",
          "name": "treasuryCut",
          "type": "uint256"
        },
        {
          "indexed": false,
          "internalType": "uint256",
          "name": "nonce",
          "type": "uint256"
        }
      ],
      "name": "VoucherSettled",
      "type": "event"
    },
    {
      "inputs": [],
      "name": "CREATOR_BPS",
      "outputs": [
        {
          "internalType": "uint256",
          "name": "",
          "type": "uint256"
        }
      ],
      "stateMutability": "view",
      "type": "function"
    },
    {
      "inputs": [],
      "name": "FAN_BPS",
      "outputs": [
        {
          "internalType": "uint256",
          "name": "",
          "type": "uint256"
        }
      ],
      "stateMutability": "view",
      "type": "function"
    },
    {
      "inputs": [],
      "name": "TREASURY_BPS",
      "outputs": [
        {
          "internalType": "uint256",
          "name": "",
          "type": "uint256"
        }
      ],
      "stateMutability": "view",
      "type": "function"
    },
    {
      "inputs": [],
      "name": "USDC",
      "outputs": [
        {
          "internalType": "contract IERC20",
          "name": "",
          "type": "address"
        }
      ],
      "stateMutability": "view",
      "type": "function"
    },
    {
      "inputs": [],
      "name": "VOUCHER_TYPEHASH",
      "outputs": [
        {
          "internalType": "bytes32",
          "name": "",
          "type": "bytes32"
        }
      ],
      "stateMutability": "view",
      "type": "function"
    },
    {
      "inputs": [],
      "name": "claimCreatorEarnings",
      "outputs": [],
      "stateMutability": "nonpayable",
      "type": "function"
    },
    {
      "inputs": [
        {
          "internalType": "address",
          "name": "",
          "type": "address"
        }
      ],
      "name": "creatorEarnings",
      "outputs": [
        {
          "internalType": "uint256",
          "name": "",
          "type": "uint256"
        }
      ],
      "stateMutability": "view",
      "type": "function"
    },
    {
      "inputs": [],
      "name": "eip712Domain",
      "outputs": [
        {
          "internalType": "bytes1",
          "name": "fields",
          "type": "bytes1"
        },
        {
          "internalType": "string",
          "name": "name",
          "type": "string"
        },
        {
          "internalType": "string",
          "name": "version",
          "type": "string"
        },
        {
          "internalType": "uint256",
          "name": "chainId",
          "type": "uint256"
        },
        {
          "internalType": "address",
          "name": "verifyingContract",
          "type": "address"
        },
        {
          "internalType": "bytes32",
          "name": "salt",
          "type": "bytes32"
        },
        {
          "internalType": "uint256[]",
          "name": "extensions",
          "type": "uint256[]"
        }
      ],
      "stateMutability": "view",
      "type": "function"
    },
    {
      "inputs": [],
      "name": "fanRewardsPool",
      "outputs": [
        {
          "internalType": "address",
          "name": "",
          "type": "address"
        }
      ],
      "stateMutability": "view",
      "type": "function"
    },
    {
      "inputs": [
        {
          "internalType": "address",
          "name": "",
          "type": "address"
        }
      ],
      "name": "nonces",
      "outputs": [
        {
          "internalType": "uint256",
          "name": "",
          "type": "uint256"
        }
      ],
      "stateMutability": "view",
      "type": "function"
    },
    {
      "inputs": [],
      "name": "owner",
      "outputs": [
        {
          "internalType": "address",
          "name": "",
          "type": "address"
        }
      ],
      "stateMutability": "view",
      "type": "function"
    },
    {
      "inputs": [],
      "name": "renounceOwnership",
      "outputs": [],
      "stateMutability": "nonpayable",
      "type": "function"
    },
    {
      "inputs": [
        {
          "internalType": "address",
          "name": "_settler",
          "type": "address"
        }
      ],
      "name": "setSettler",
      "outputs": [],
      "stateMutability": "nonpayable",
      "type": "function"
    },
    {
      "inputs": [
        {
          "internalType": "address",
          "name": "user",
          "type": "address"
        },
        {
          "internalType": "address",
          "name": "creator",
          "type": "address"
        },
        {
          "internalType": "uint256",
          "name": "totalOwed",
          "type": "uint256"
        },
        {
          "internalType": "uint256",
          "name": "nonce",
          "type": "uint256"
        },
        {
          "internalType": "bytes",
          "name": "signature",
          "type": "bytes"
        }
      ],
      "name": "settleVoucher",
      "outputs": [],
      "stateMutability": "nonpayable",
      "type": "function"
    },
    {
      "inputs": [],
      "name": "settler",
      "outputs": [
        {
          "internalType": "address",
          "name": "",
          "type": "address"
        }
      ],
      "stateMutability": "view",
      "type": "function"
    },
    {
      "inputs": [
        {
          "internalType": "address",
          "name": "newOwner",
          "type": "address"
        }
      ],
      "name": "transferOwnership",
      "outputs": [],
      "stateMutability": "nonpayable",
      "type": "function"
    },
    {
      "inputs": [],
      "name": "treasury",
      "outputs": [
        {
          "internalType": "address",
          "name": "",
          "type": "address"
        }
      ],
      "stateMutability": "view",
      "type": "function"
    },
    {
      "stateMutability": "payable",
      "type": "receive"
    }
  ],
  "bytecode": "0x6101c060405234801562000011575f80fd5b5060405162001bd238038062001bd2833981016040819052620000349162000434565b604080518082018252600d81526c149bd85c98985b1b15985d5b1d609a1b602080830191909152825180840190935260018352603160f81b9083015233916200007e825f6200034d565b610120526200008f8160016200034d565b61014052815160208084019190912060e052815190820120610100524660a0526200011c60e05161010051604080517f8b73c3c69bb8fe3d512ecc4cf759cc79239f7b179b0ffacaa9a75d522b39400f60208201529081019290925260608201524660808201523060a08201525f9060c00160405160208183030381529060405280519060200120905090565b60805250503060c0526001600160a01b0381166200015457604051631e4fbdf760e01b81525f60048201526024015b60405180910390fd5b6200015f8162000385565b5060017f9b779b17422d0df92223018b32b4d1fa46e071723d6817e2486d003becc55f00556001600160a01b038416620001dc5760405162461bcd60e51b815260206004820152601860248201527f526f617262616c6c5661756c743a207a65726f2055534443000000000000000060448201526064016200014b565b6001600160a01b038316620002345760405162461bcd60e51b815260206004820152601c60248201527f526f617262616c6c5661756c743a207a65726f2074726561737572790000000060448201526064016200014b565b6001600160a01b0382166200028c5760405162461bcd60e51b815260206004820152601c60248201527f526f617262616c6c5661756c743a207a65726f2066616e20706f6f6c0000000060448201526064016200014b565b6001600160a01b038116620002e45760405162461bcd60e51b815260206004820152601b60248201527f526f617262616c6c5661756c743a207a65726f20736574746c6572000000000060448201526064016200014b565b6101f4620002f76103e86121346200048e565b6200030391906200048e565b61271014620003165762000316620004ae565b6001600160a01b03938416610160529183166101805282166101a052600380546001600160a01b031916919092161790556200069e565b5f6020835110156200036c576200036483620003d6565b90506200037f565b8162000379848262000560565b5060ff90505b92915050565b600280546001600160a01b038381166001600160a01b0319831681179093556040519116919082907f8be0079c531659141344cd1fd0a4f28419497f9722a3daafe3b4186f6b6457e0905f90a35050565b5f80829050601f8151111562000403578260405163305a27a960e01b81526004016200014b91906200062c565b805162000410826200067a565b179392505050565b80516001600160a01b03811681146200042f575f80fd5b919050565b5f805f806080858703121562000448575f80fd5b620004538562000418565b9350620004636020860162000418565b9250620004736040860162000418565b9150620004836060860162000418565b905092959194509250565b808201808211156200037f57634e487b7160e01b5f52601160045260245ffd5b634e487b7160e01b5f52600160045260245ffd5b634e487b7160e01b5f52604160045260245ffd5b600181811c90821680620004eb57607f821691505b6020821081036200050a57634e487b7160e01b5f52602260045260245ffd5b50919050565b601f8211156200055b57805f5260205f20601f840160051c81016020851015620005375750805b601f840160051c820191505b8181101562000558575f815560010162000543565b50505b505050565b81516001600160401b038111156200057c576200057c620004c2565b62000594816200058d8454620004d6565b8462000510565b602080601f831160018114620005ca575f8415620005b25750858301515b5f19600386901b1c1916600185901b17855562000624565b5f85815260208120601f198616915b82811015620005fa57888601518255948401946001909101908401620005d9565b50858210156200061857878501515f19600388901b60f8161c191681555b505060018460011b0185555b505050505050565b5f602080835283518060208501525f5b818110156200065a578581018301518582016040015282016200063c565b505f604082860101526040601f19601f8301168501019250505092915050565b805160208083015191908110156200050a575f1960209190910360031b1b16919050565b60805160a05160c05160e05161010051610120516101405161016051610180516101a05161149a620007385f395f818161018501526109bc01525f81816102210152610a1001525f81816102ba015281816104fb015281816109380152818161099a01526109ee01525f610c0001525f610bcf01525f610ecf01525f610ea701525f610e0201525f610e2c01525f610e56015261149a5ff3fe6080604052600436106100fd575f3560e01c806384b0196e11610092578063a75e89d511610062578063a75e89d51461032c578063ab221a761461034b578063f2fde38b1461036a578063fa2158fc14610389578063fa3c30a81461039e575f80fd5b806384b0196e1461028257806389a30271146102a95780638da5cb5b146102dc57806394739e87146102f9575f80fd5b80634c25d197116100cd5780634c25d197146101fb57806361d027b314610210578063715018a6146102435780637ecebe0014610257575f80fd5b806307f19eba146101535780633f84cfec1461017457806345904567146101c457806346349c7f146101e7575f80fd5b3661014f5760405162461bcd60e51b815260206004820152601e60248201527f526f617262616c6c5661756c743a206e6f204f4b42206163636570746564000060448201526064015b60405180910390fd5b5f80fd5b34801561015e575f80fd5b5061017261016d3660046111d8565b6103c9565b005b34801561017f575f80fd5b506101a77f000000000000000000000000000000000000000000000000000000000000000081565b6040516001600160a01b0390911681526020015b60405180910390f35b3480156101cf575f80fd5b506101d961213481565b6040519081526020016101bb565b3480156101f2575f80fd5b50610172610482565b348015610206575f80fd5b506101d96101f481565b34801561021b575f80fd5b506101a77f000000000000000000000000000000000000000000000000000000000000000081565b34801561024e575f80fd5b50610172610578565b348015610262575f80fd5b506101d96102713660046111d8565b60056020525f908152604090205481565b34801561028d575f80fd5b50610296610589565b6040516101bb979695949392919061123b565b3480156102b4575f80fd5b506101a77f000000000000000000000000000000000000000000000000000000000000000081565b3480156102e7575f80fd5b506002546001600160a01b03166101a7565b348015610304575f80fd5b506101d97f33e3b50df8dcadc9fc90c285f5a5d2660947f21b875db370b34449c46300c72c81565b348015610337575f80fd5b506101726103463660046112d2565b6105cb565b348015610356575f80fd5b506003546101a7906001600160a01b031681565b348015610375575f80fd5b506101726103843660046111d8565b610ab8565b348015610394575f80fd5b506101d96103e881565b3480156103a9575f80fd5b506101d96103b83660046111d8565b60046020525f908152604090205481565b6103d1610af5565b6001600160a01b0381166104275760405162461bcd60e51b815260206004820152601b60248201527f526f617262616c6c5661756c743a207a65726f20736574746c657200000000006044820152606401610146565b6003546040516001600160a01b038084169216907f7c72fae177c59a6c85f9a5eca78d204b4a8ad5b668e5beb8c24464870af7160c905f90a3600380546001600160a01b0319166001600160a01b0392909216919091179055565b61048a610b22565b335f90815260046020526040902054806104e65760405162461bcd60e51b815260206004820152601f60248201527f526f617262616c6c5661756c743a206e6f7468696e6720746f20636c61696d006044820152606401610146565b335f8181526004602052604081205561052a907f00000000000000000000000000000000000000000000000000000000000000006001600160a01b03169083610b3d565b60405181815233907fd3a47810d5b7bf060f5a846b2900e17ee7ebfc6e5f09c2c5fc978b967375e3c49060200160405180910390a25061057660015f8051602061144583398151915255565b565b610580610af5565b6105765f610b77565b5f6060805f805f606061059a610bc8565b6105a2610bf9565b604080515f80825260208201909252600f60f81b9b939a50919850469750309650945092509050565b6003546001600160a01b031633146106255760405162461bcd60e51b815260206004820152601a60248201527f526f617262616c6c5661756c743a206e6f7420736574746c65720000000000006044820152606401610146565b61062d610b22565b6001600160a01b0386165f9081526005602052604090205483146106935760405162461bcd60e51b815260206004820152601c60248201527f526f617262616c6c5661756c743a20696e76616c6964206e6f6e6365000000006044820152606401610146565b5f84116106e25760405162461bcd60e51b815260206004820152601a60248201527f526f617262616c6c5661756c743a207a65726f20616d6f756e740000000000006044820152606401610146565b6001600160a01b0385166107385760405162461bcd60e51b815260206004820152601b60248201527f526f617262616c6c5661756c743a207a65726f2063726561746f7200000000006044820152606401610146565b856001600160a01b0316856001600160a01b0316036107995760405162461bcd60e51b815260206004820152601b60248201527f526f617262616c6c5661756c743a2073656c662d7061796d656e7400000000006044820152606401610146565b604080517f33e3b50df8dcadc9fc90c285f5a5d2660947f21b875db370b34449c46300c72c6020808301919091526001600160a01b0389811683850152881660608301526080820187905260a08083018790528351808403909101815260c090920190925280519101205f61080d82610c26565b90505f61084f8286868080601f0160208091040260200160405190810160405280939291908181526020018383808284375f92019190915250610c5892505050565b9050886001600160a01b0316816001600160a01b0316146108b25760405162461bcd60e51b815260206004820181905260248201527f526f617262616c6c5661756c743a20696e76616c6964207369676e61747572656044820152606401610146565b6001600160a01b0389165f9081526005602052604081208054916108d583611384565b909155505f90506127106108eb6103e88a61139c565b6108f591906113b3565b90505f6127106109076101f48b61139c565b61091191906113b3565b90505f8161091f848c6113d2565b61092991906113d2565b90506109606001600160a01b037f0000000000000000000000000000000000000000000000000000000000000000168d308d610c80565b6001600160a01b038b165f90815260046020526040812080548392906109879084906113e5565b909155506109e190506001600160a01b037f0000000000000000000000000000000000000000000000000000000000000000167f000000000000000000000000000000000000000000000000000000000000000085610b3d565b610a356001600160a01b037f0000000000000000000000000000000000000000000000000000000000000000167f000000000000000000000000000000000000000000000000000000000000000084610b3d565b604080518b81526020810183905290810184905260608101839052608081018a90526001600160a01b03808d1691908e16907fcaca6f96e66fb973b57e8d04f0f0175ff5fc642aee65437282d54857ef4780679060a00160405180910390a3505050505050610ab060015f8051602061144583398151915255565b505050505050565b610ac0610af5565b6001600160a01b038116610ae957604051631e4fbdf760e01b81525f6004820152602401610146565b610af281610b77565b50565b6002546001600160a01b031633146105765760405163118cdaa760e01b8152336004820152602401610146565b610b2a610cbc565b60025f8051602061144583398151915255565b610b4a8383836001610ceb565b610b7257604051635274afe760e01b81526001600160a01b0384166004820152602401610146565b505050565b600280546001600160a01b038381166001600160a01b0319831681179093556040519116919082907f8be0079c531659141344cd1fd0a4f28419497f9722a3daafe3b4186f6b6457e0905f90a35050565b6060610bf47f00000000000000000000000000000000000000000000000000000000000000005f610d4d565b905090565b6060610bf47f00000000000000000000000000000000000000000000000000000000000000006001610d4d565b5f610c52610c32610df6565b8360405161190160f01b8152600281019290925260228201526042902090565b92915050565b5f805f80610c668686610f1f565b925092509250610c768282610f68565b5090949350505050565b610c8e848484846001611024565b610cb657604051635274afe760e01b81526001600160a01b0385166004820152602401610146565b50505050565b5f805160206114458339815191525460020361057657604051633ee5aeb560e01b815260040160405180910390fd5b60405163a9059cbb60e01b5f8181526001600160a01b038616600452602485905291602083604481808b5af1925060015f51148316610d41578383151615610d35573d5f823e3d81fd5b5f873b113d1516831692505b60405250949350505050565b606060ff8314610d6757610d6083611091565b9050610c52565b818054610d73906113f8565b80601f0160208091040260200160405190810160405280929190818152602001828054610d9f906113f8565b8015610dea5780601f10610dc157610100808354040283529160200191610dea565b820191905f5260205f20905b815481529060010190602001808311610dcd57829003601f168201915b50505050509050610c52565b5f306001600160a01b037f000000000000000000000000000000000000000000000000000000000000000016148015610e4e57507f000000000000000000000000000000000000000000000000000000000000000046145b15610e7857507f000000000000000000000000000000000000000000000000000000000000000090565b610bf4604080517f8b73c3c69bb8fe3d512ecc4cf759cc79239f7b179b0ffacaa9a75d522b39400f60208201527f0000000000000000000000000000000000000000000000000000000000000000918101919091527f000000000000000000000000000000000000000000000000000000000000000060608201524660808201523060a08201525f9060c00160405160208183030381529060405280519060200120905090565b5f805f8351604103610f56576020840151604085015160608601515f1a610f48888285856110ce565b955095509550505050610f61565b505081515f91506002905b9250925092565b5f826003811115610f7b57610f7b611430565b03610f84575050565b6001826003811115610f9857610f98611430565b03610fb65760405163f645eedf60e01b815260040160405180910390fd5b6002826003811115610fca57610fca611430565b03610feb5760405163fce698f760e01b815260048101829052602401610146565b6003826003811115610fff57610fff611430565b03611020576040516335e2f38360e21b815260048101829052602401610146565b5050565b6040516323b872dd60e01b5f8181526001600160a01b038781166004528616602452604485905291602083606481808c5af1925060015f51148316611080578383151615611074573d5f823e3d81fd5b5f883b113d1516831692505b604052505f60605295945050505050565b60605f61109d83611196565b6040805160208082528183019092529192505f91906020820181803683375050509182525060208101929092525090565b5f80807f7fffffffffffffffffffffffffffffff5d576e7357a4501ddfe92f46681b20a084111561110757505f9150600390508261118c565b604080515f808252602082018084528a905260ff891692820192909252606081018790526080810186905260019060a0016020604051602081039080840390855afa158015611158573d5f803e3d5ffd5b5050604051601f1901519150506001600160a01b03811661118357505f92506001915082905061118c565b92505f91508190505b9450945094915050565b5f60ff8216601f811115610c5257604051632cd44ac360e21b815260040160405180910390fd5b80356001600160a01b03811681146111d3575f80fd5b919050565b5f602082840312156111e8575f80fd5b6111f1826111bd565b9392505050565b5f81518084525f5b8181101561121c57602081850181015186830182015201611200565b505f602082860101526020601f19601f83011685010191505092915050565b60ff60f81b881681525f602060e0602084015261125b60e084018a6111f8565b838103604085015261126d818a6111f8565b606085018990526001600160a01b038816608086015260a0850187905284810360c0860152855180825260208088019350909101905f5b818110156112c0578351835292840192918401916001016112a4565b50909c9b505050505050505050505050565b5f805f805f8060a087890312156112e7575f80fd5b6112f0876111bd565b95506112fe602088016111bd565b94506040870135935060608701359250608087013567ffffffffffffffff80821115611328575f80fd5b818901915089601f83011261133b575f80fd5b813581811115611349575f80fd5b8a602082850101111561135a575f80fd5b6020830194508093505050509295509295509295565b634e487b7160e01b5f52601160045260245ffd5b5f6001820161139557611395611370565b5060010190565b8082028115828204841417610c5257610c52611370565b5f826113cd57634e487b7160e01b5f52601260045260245ffd5b500490565b81810381811115610c5257610c52611370565b80820180821115610c5257610c52611370565b600181811c9082168061140c57607f821691505b60208210810361142a57634e487b7160e01b5f52602260045260245ffd5b50919050565b634e487b7160e01b5f52602160045260245ffdfe9b779b17422d0df92223018b32b4d1fa46e071723d6817e2486d003becc55f00a2646970667358221220fe700f02f8f7395017a21dffe578b230e919a7c2bacf3912856428bd08f1e7be64736f6c63430008180033",
  "linkReferences": {},
  "deployedLinkReferences": {}
}