{
  "_format": "hh-sol-artifact-1",
  "contractName": "FanRewardsPool",
  "sourceName": "src/FanRewardsPool.sol",
  "abi": [
    {
      "inputs": [
        {
          "internalType": "address",
          "name": "_usdc",
          "type": "address"
        },
        {
          "internalType": "address",
          "name": "_leaderboard",
          "type": "address"
        }
      ],
      "stateMutability": "nonpayable",
      "type": "constructor"
    },
    {
      "inputs": [
        {
          "internalType": "address",
          "name": "owner",
          "type": "address"
        }
      ],
      "name": "OwnableInvalidOwner",
      "type": "error"
    },
    {
      "inputs": [
        {
          "internalType": "address",
          "name": "account",
          "type": "address"
        }
      ],
      "name": "OwnableUnauthorizedAccount",
      "type": "error"
    },
    {
      "anonymous": false,
      "inputs": [
        {
          "indexed": true,
          "internalType": "address",
          "name": "from",
          "type": "address"
        },
        {
          "indexed": false,
          "internalType": "uint256",
          "name": "amount",
          "type": "uint256"
        }
      ],
      "name": "Deposited",
      "type": "event"
    },
    {
      "anonymous": false,
      "inputs": [
        {
          "indexed": true,
          "internalType": "uint256",
          "name": "weekId",
          "type": "uint256"
        },
        {
          "indexed": false,
          "internalType": "string",
          "name": "countryCode",
          "type": "string"
        },
        {
          "indexed": false,
          "internalType": "uint256",
          "name": "totalPaid",
          "type": "uint256"
        }
      ],
      "name": "Distributed",
      "type": "event"
    },
    {
      "anonymous": false,
      "inputs": [
        {
          "indexed": true,
          "internalType": "address",
          "name": "previousOwner",
          "type": "address"
        },
        {
          "indexed": true,
          "internalType": "address",
          "name": "newOwner",
          "type": "address"
        }
      ],
      "name": "OwnershipTransferred",
      "type": "event"
    },
    {
      "inputs": [
        {
          "internalType": "uint256",
          "name": "",
          "type": "uint256"
        }
      ],
      "name": "RANK_WEIGHTS",
      "outputs": [
        {
          "internalType": "uint256",
          "name": "",
          "type": "uint256"
        }
      ],
      "stateMutability": "view",
      "type": "function"
    },
    {
      "inputs": [
        {
          "internalType": "uint256",
          "name": "amount",
          "type": "uint256"
        }
      ],
      "name": "deposit",
      "outputs": [],
      "stateMutability": "nonpayable",
      "type": "function"
    },
    {
      "inputs": [
        {
          "internalType": "uint256",
          "name": "weekId",
          "type": "uint256"
        },
        {
          "internalType": "string",
          "name": "countryCode",
          "type": "string"
        },
        {
          "internalType": "uint256",
          "name": "allocationUSDC",
          "type": "uint256"
        }
      ],
      "name": "distribute",
      "outputs": [],
      "stateMutability": "nonpayable",
      "type": "function"
    },
    {
      "inputs": [],
      "name": "leaderboard",
      "outputs": [
        {
          "internalType": "contract WatchLeaderboard",
          "name": "",
          "type": "address"
        }
      ],
      "stateMutability": "view",
      "type": "function"
    },
    {
      "inputs": [],
      "name": "owner",
      "outputs": [
        {
          "internalType": "address",
          "name": "",
          "type": "address"
        }
      ],
      "stateMutability": "view",
      "type": "function"
    },
    {
      "inputs": [],
      "name": "poolBalance",
      "outputs": [
        {
          "internalType": "uint256",
          "name": "",
          "type": "uint256"
        }
      ],
      "stateMutability": "view",
      "type": "function"
    },
    {
      "inputs": [],
      "name": "receiveDeposit",
      "outputs": [],
      "stateMutability": "nonpayable",
      "type": "function"
    },
    {
      "inputs": [],
      "name": "renounceOwnership",
      "outputs": [],
      "stateMutability": "nonpayable",
      "type": "function"
    },
    {
      "inputs": [
        {
          "internalType": "address",
          "name": "newOwner",
          "type": "address"
        }
      ],
      "name": "transferOwnership",
      "outputs": [],
      "stateMutability": "nonpayable",
      "type": "function"
    },
    {
      "inputs": [],
      "name": "usdc",
      "outputs": [
        {
          "internalType": "contract IERC20",
          "name": "",
          "type": "address"
        }
      ],
      "stateMutability": "view",
      "type": "function"
    },
    {
      "stateMutability": "payable",
      "type": "receive"
    }
  ],
  "bytecode": "0x60c060405234801561000f575f80fd5b50604051610cd2380380610cd283398101604081905261002e91610111565b338061005357604051631e4fbdf760e01b81525f600482015260240160405180910390fd5b61005c816100a7565b506001600160a01b039182166080521660a052601960015560146002908155600f6003908155600c600490815560096005818155600760068190555560089190915555600a55610142565b5f80546001600160a01b038381166001600160a01b0319831681178455604051919092169283917f8be0079c531659141344cd1fd0a4f28419497f9722a3daafe3b4186f6b6457e09190a35050565b80516001600160a01b038116811461010c575f80fd5b919050565b5f8060408385031215610122575f80fd5b61012b836100f6565b9150610139602084016100f6565b90509250929050565b60805160a051610b5461017e5f395f81816101ba015261022f01525f818160ae0152818161041f0152818161054c01526105e40152610b545ff3fe608060405260043610610092575f3560e01c8063b6b55f2511610057578063b6b55f2514610160578063bfba98c51461017f578063e367ef5e1461019e578063eb56b740146101a9578063f2fde38b146101dc575f80fd5b80633e413bee1461009d578063715018a6146100ed5780637db629f9146101035780638da5cb5b1461012257806396365d441461013e575f80fd5b3661009957005b5f80fd5b3480156100a8575f80fd5b506100d07f000000000000000000000000000000000000000000000000000000000000000081565b6040516001600160a01b0390911681526020015b60405180910390f35b3480156100f8575f80fd5b506101016101fb565b005b34801561010e575f80fd5b5061010161011d36600461075d565b61020e565b34801561012d575f80fd5b505f546001600160a01b03166100d0565b348015610149575f80fd5b50610152610535565b6040519081526020016100e4565b34801561016b575f80fd5b5061010161017a3660046107d8565b6105c2565b34801561018a575f80fd5b506101526101993660046107d8565b61068f565b348015610101575f80fd5b3480156101b4575f80fd5b506100d07f000000000000000000000000000000000000000000000000000000000000000081565b3480156101e7575f80fd5b506101016101f6366004610803565b6106a5565b6102036106e2565b61020c5f61070e565b565b6102166106e2565b6040516318ecc10760e11b81525f906001600160a01b037f000000000000000000000000000000000000000000000000000000000000000016906331d9820e906102689088908890889060040161084d565b5f60405180830381865afa158015610282573d5f803e3d5ffd5b505050506040513d5f823e601f3d908101601f191682016040526102a991908101906108dd565b90505f81511161031d5760405162461bcd60e51b815260206004820152603460248201527f46616e52657761726473506f6f6c3a206e6f206c6561646572626f61726420666044820152736f72207468697320636f756e7472792f7765656b60601b60648201526084015b60405180910390fd5b5f821161036c5760405162461bcd60e51b815260206004820152601f60248201527f46616e52657761726473506f6f6c3a207a65726f20616c6c6f636174696f6e006044820152606401610314565b5f805b82518110156103a157600181600a811061038b5761038b610a4e565b01546103979083610a76565b915060010161036f565b505f805b83518110156104ef575f83600183600a81106103c3576103c3610a4e565b01546103cf9088610a8f565b6103d99190610aa6565b90505f8111801561041857505f6001600160a01b031685838151811061040157610401610a4e565b60200260200101515f01516001600160a01b031614155b156104e6577f00000000000000000000000000000000000000000000000000000000000000006001600160a01b031663a9059cbb86848151811061045e5761045e610a4e565b6020908102919091010151516040516001600160e01b031960e084901b1681526001600160a01b039091166004820152602481018490526044016020604051808303815f875af11580156104b4573d5f803e3d5ffd5b505050506040513d601f19601f820116820180604052508101906104d89190610ac5565b506104e38184610a76565b92505b506001016103a5565b50867f367bb03b00da37601f1e8ec333ede84b9c19a1cac6c328588d9c7e7e2aaa9f5f87878460405161052493929190610ae4565b60405180910390a250505050505050565b6040516370a0823160e01b81523060048201525f907f00000000000000000000000000000000000000000000000000000000000000006001600160a01b0316906370a0823190602401602060405180830381865afa158015610599573d5f803e3d5ffd5b505050506040513d601f19601f820116820180604052508101906105bd9190610b07565b905090565b6040516323b872dd60e01b8152336004820152306024820152604481018290527f00000000000000000000000000000000000000000000000000000000000000006001600160a01b0316906323b872dd906064016020604051808303815f875af1158015610632573d5f803e3d5ffd5b505050506040513d601f19601f820116820180604052508101906106569190610ac5565b5060405181815233907f2da466a7b24304f47e87fa2e1e5a81b9831ce54fec19055ce277ca2f39ba42c49060200160405180910390a250565b600181600a811061069e575f80fd5b0154905081565b6106ad6106e2565b6001600160a01b0381166106d657604051631e4fbdf760e01b81525f6004820152602401610314565b6106df8161070e565b50565b5f546001600160a01b0316331461020c5760405163118cdaa760e01b8152336004820152602401610314565b5f80546001600160a01b038381166001600160a01b0319831681178455604051919092169283917f8be0079c531659141344cd1fd0a4f28419497f9722a3daafe3b4186f6b6457e09190a35050565b5f805f8060608587031215610770575f80fd5b84359350602085013567ffffffffffffffff8082111561078e575f80fd5b818701915087601f8301126107a1575f80fd5b8135818111156107af575f80fd5b8860208285010111156107c0575f80fd5b95986020929092019750949560400135945092505050565b5f602082840312156107e8575f80fd5b5035919050565b6001600160a01b03811681146106df575f80fd5b5f60208284031215610813575f80fd5b813561081e816107ef565b9392505050565b81835281816020850137505f828201602090810191909152601f909101601f19169091010190565b838152604060208201525f610866604083018486610825565b95945050505050565b634e487b7160e01b5f52604160045260245ffd5b6040516060810167ffffffffffffffff811182821017156108a6576108a661086f565b60405290565b604051601f8201601f1916810167ffffffffffffffff811182821017156108d5576108d561086f565b604052919050565b5f60208083850312156108ee575f80fd5b825167ffffffffffffffff80821115610905575f80fd5b818501915085601f830112610918575f80fd5b81518181111561092a5761092a61086f565b8060051b6109398582016108ac565b9182528381018501918581019089841115610952575f80fd5b86860192505b83831015610a415782518581111561096e575f80fd5b86016060601f19828d038101821315610985575f80fd5b61098d610883565b8a84015161099a816107ef565b81526040848101518c8301529284015192898411156109b7575f80fd5b83850194508e603f8601126109ca575f80fd5b8b8501519350898411156109e0576109e061086f565b6109f08c84601f870116016108ac565b92508383528e81858701011115610a05575f80fd5b5f5b84811015610a22578581018201518482018e01528c01610a07565b505f9383018c0193909352918201528352509186019190860190610958565b9998505050505050505050565b634e487b7160e01b5f52603260045260245ffd5b634e487b7160e01b5f52601160045260245ffd5b80820180821115610a8957610a89610a62565b92915050565b8082028115828204841417610a8957610a89610a62565b5f82610ac057634e487b7160e01b5f52601260045260245ffd5b500490565b5f60208284031215610ad5575f80fd5b8151801515811461081e575f80fd5b604081525f610af7604083018587610825565b9050826020830152949350505050565b5f60208284031215610b17575f80fd5b505191905056fea2646970667358221220395f92f4914474b2aedf8ede3b769a8d01200d4c53dcd1a0caa652f54d7a5c0764736f6c63430008180033",
  "linkReferences": {},
  "deployedLinkReferences": {}
}