{
  "_format": "hh-sol-artifact-1",
  "contractName": "RoarBadges",
  "sourceName": "src/RoarBadges.sol",
  "abi": [
    {
      "inputs": [
        {
          "internalType": "string",
          "name": "_baseURI",
          "type": "string"
        },
        {
          "internalType": "address",
          "name": "_owner",
          "type": "address"
        }
      ],
      "stateMutability": "nonpayable",
      "type": "constructor"
    },
    {
      "inputs": [
        {
          "internalType": "address",
          "name": "sender",
          "type": "address"
        },
        {
          "internalType": "uint256",
          "name": "balance",
          "type": "uint256"
        },
        {
          "internalType": "uint256",
          "name": "needed",
          "type": "uint256"
        },
        {
          "internalType": "uint256",
          "name": "tokenId",
          "type": "uint256"
        }
      ],
      "name": "ERC1155InsufficientBalance",
      "type": "error"
    },
    {
      "inputs": [
        {
          "internalType": "address",
          "name": "approver",
          "type": "address"
        }
      ],
      "name": "ERC1155InvalidApprover",
      "type": "error"
    },
    {
      "inputs": [
        {
          "internalType": "uint256",
          "name": "idsLength",
          "type": "uint256"
        },
        {
          "internalType": "uint256",
          "name": "valuesLength",
          "type": "uint256"
        }
      ],
      "name": "ERC1155InvalidArrayLength",
      "type": "error"
    },
    {
      "inputs": [
        {
          "internalType": "address",
          "name": "operator",
          "type": "address"
        }
      ],
      "name": "ERC1155InvalidOperator",
      "type": "error"
    },
    {
      "inputs": [
        {
          "internalType": "address",
          "name": "receiver",
          "type": "address"
        }
      ],
      "name": "ERC1155InvalidReceiver",
      "type": "error"
    },
    {
      "inputs": [
        {
          "internalType": "address",
          "name": "sender",
          "type": "address"
        }
      ],
      "name": "ERC1155InvalidSender",
      "type": "error"
    },
    {
      "inputs": [
        {
          "internalType": "address",
          "name": "operator",
          "type": "address"
        },
        {
          "internalType": "address",
          "name": "owner",
          "type": "address"
        }
      ],
      "name": "ERC1155MissingApprovalForAll",
      "type": "error"
    },
    {
      "inputs": [
        {
          "internalType": "address",
          "name": "owner",
          "type": "address"
        }
      ],
      "name": "OwnableInvalidOwner",
      "type": "error"
    },
    {
      "inputs": [
        {
          "internalType": "address",
          "name": "account",
          "type": "address"
        }
      ],
      "name": "OwnableUnauthorizedAccount",
      "type": "error"
    },
    {
      "anonymous": false,
      "inputs": [
        {
          "indexed": true,
          "internalType": "address",
          "name": "account",
          "type": "address"
        },
        {
          "indexed": true,
          "internalType": "address",
          "name": "operator",
          "type": "address"
        },
        {
          "indexed": false,
          "internalType": "bool",
          "name": "approved",
          "type": "bool"
        }
      ],
      "name": "ApprovalForAll",
      "type": "event"
    },
    {
      "anonymous": false,
      "inputs": [
        {
          "indexed": true,
          "internalType": "address",
          "name": "recipient",
          "type": "address"
        },
        {
          "indexed": true,
          "internalType": "uint256",
          "name": "badgeId",
          "type": "uint256"
        },
        {
          "indexed": false,
          "internalType": "string",
          "name": "badgeName",
          "type": "string"
        }
      ],
      "name": "BadgeClaimed",
      "type": "event"
    },
    {
      "anonymous": false,
      "inputs": [
        {
          "indexed": true,
          "internalType": "address",
          "name": "minter",
          "type": "address"
        },
        {
          "indexed": false,
          "internalType": "bool",
          "name": "authorized",
          "type": "bool"
        }
      ],
      "name": "MinterUpdated",
      "type": "event"
    },
    {
      "anonymous": false,
      "inputs": [
        {
          "indexed": true,
          "internalType": "address",
          "name": "previousOwner",
          "type": "address"
        },
        {
          "indexed": true,
          "internalType": "address",
          "name": "newOwner",
          "type": "address"
        }
      ],
      "name": "OwnershipTransferred",
      "type": "event"
    },
    {
      "anonymous": false,
      "inputs": [
        {
          "indexed": true,
          "internalType": "address",
          "name": "operator",
          "type": "address"
        },
        {
          "indexed": true,
          "internalType": "address",
          "name": "from",
          "type": "address"
        },
        {
          "indexed": true,
          "internalType": "address",
          "name": "to",
          "type": "address"
        },
        {
          "indexed": false,
          "internalType": "uint256[]",
          "name": "ids",
          "type": "uint256[]"
        },
        {
          "indexed": false,
          "internalType": "uint256[]",
          "name": "values",
          "type": "uint256[]"
        }
      ],
      "name": "TransferBatch",
      "type": "event"
    },
    {
      "anonymous": false,
      "inputs": [
        {
          "indexed": true,
          "internalType": "address",
          "name": "operator",
          "type": "address"
        },
        {
          "indexed": true,
          "internalType": "address",
          "name": "from",
          "type": "address"
        },
        {
          "indexed": true,
          "internalType": "address",
          "name": "to",
          "type": "address"
        },
        {
          "indexed": false,
          "internalType": "uint256",
          "name": "id",
          "type": "uint256"
        },
        {
          "indexed": false,
          "internalType": "uint256",
          "name": "value",
          "type": "uint256"
        }
      ],
      "name": "TransferSingle",
      "type": "event"
    },
    {
      "anonymous": false,
      "inputs": [
        {
          "indexed": false,
          "internalType": "string",
          "name": "value",
          "type": "string"
        },
        {
          "indexed": true,
          "internalType": "uint256",
          "name": "id",
          "type": "uint256"
        }
      ],
      "name": "URI",
      "type": "event"
    },
    {
      "inputs": [
        {
          "internalType": "uint256",
          "name": "",
          "type": "uint256"
        }
      ],
      "name": "badgeURIs",
      "outputs": [
        {
          "internalType": "string",
          "name": "",
          "type": "string"
        }
      ],
      "stateMutability": "view",
      "type": "function"
    },
    {
      "inputs": [
        {
          "internalType": "address",
          "name": "account",
          "type": "address"
        },
        {
          "internalType": "uint256",
          "name": "id",
          "type": "uint256"
        }
      ],
      "name": "balanceOf",
      "outputs": [
        {
          "internalType": "uint256",
          "name": "",
          "type": "uint256"
        }
      ],
      "stateMutability": "view",
      "type": "function"
    },
    {
      "inputs": [
        {
          "internalType": "address[]",
          "name": "accounts",
          "type": "address[]"
        },
        {
          "internalType": "uint256[]",
          "name": "ids",
          "type": "uint256[]"
        }
      ],
      "name": "balanceOfBatch",
      "outputs": [
        {
          "internalType": "uint256[]",
          "name": "",
          "type": "uint256[]"
        }
      ],
      "stateMutability": "view",
      "type": "function"
    },
    {
      "inputs": [
        {
          "internalType": "address[]",
          "name": "recipients",
          "type": "address[]"
        },
        {
          "internalType": "uint256[]",
          "name": "badgeIds",
          "type": "uint256[]"
        },
        {
          "internalType": "string[]",
          "name": "badgeNames",
          "type": "string[]"
        }
      ],
      "name": "batchMintBadges",
      "outputs": [],
      "stateMutability": "nonpayable",
      "type": "function"
    },
    {
      "inputs": [
        {
          "internalType": "address",
          "name": "",
          "type": "address"
        },
        {
          "internalType": "uint256",
          "name": "",
          "type": "uint256"
        }
      ],
      "name": "hasClaimed",
      "outputs": [
        {
          "internalType": "bool",
          "name": "",
          "type": "bool"
        }
      ],
      "stateMutability": "view",
      "type": "function"
    },
    {
      "inputs": [
        {
          "internalType": "address",
          "name": "account",
          "type": "address"
        },
        {
          "internalType": "address",
          "name": "operator",
          "type": "address"
        }
      ],
      "name": "isApprovedForAll",
      "outputs": [
        {
          "internalType": "bool",
          "name": "",
          "type": "bool"
        }
      ],
      "stateMutability": "view",
      "type": "function"
    },
    {
      "inputs": [
        {
          "internalType": "address",
          "name": "recipient",
          "type": "address"
        },
        {
          "internalType": "uint256",
          "name": "badgeId",
          "type": "uint256"
        },
        {
          "internalType": "string",
          "name": "badgeName",
          "type": "string"
        }
      ],
      "name": "mintBadge",
      "outputs": [],
      "stateMutability": "nonpayable",
      "type": "function"
    },
    {
      "inputs": [
        {
          "internalType": "address",
          "name": "",
          "type": "address"
        }
      ],
      "name": "minters",
      "outputs": [
        {
          "internalType": "bool",
          "name": "",
          "type": "bool"
        }
      ],
      "stateMutability": "view",
      "type": "function"
    },
    {
      "inputs": [],
      "name": "owner",
      "outputs": [
        {
          "internalType": "address",
          "name": "",
          "type": "address"
        }
      ],
      "stateMutability": "view",
      "type": "function"
    },
    {
      "inputs": [],
      "name": "renounceOwnership",
      "outputs": [],
      "stateMutability": "nonpayable",
      "type": "function"
    },
    {
      "inputs": [
        {
          "internalType": "address",
          "name": "from",
          "type": "address"
        },
        {
          "internalType": "address",
          "name": "to",
          "type": "address"
        },
        {
          "internalType": "uint256[]",
          "name": "ids",
          "type": "uint256[]"
        },
        {
          "internalType": "uint256[]",
          "name": "values",
          "type": "uint256[]"
        },
        {
          "internalType": "bytes",
          "name": "data",
          "type": "bytes"
        }
      ],
      "name": "safeBatchTransferFrom",
      "outputs": [],
      "stateMutability": "nonpayable",
      "type": "function"
    },
    {
      "inputs": [
        {
          "internalType": "address",
          "name": "from",
          "type": "address"
        },
        {
          "internalType": "address",
          "name": "to",
          "type": "address"
        },
        {
          "internalType": "uint256",
          "name": "id",
          "type": "uint256"
        },
        {
          "internalType": "uint256",
          "name": "value",
          "type": "uint256"
        },
        {
          "internalType": "bytes",
          "name": "data",
          "type": "bytes"
        }
      ],
      "name": "safeTransferFrom",
      "outputs": [],
      "stateMutability": "nonpayable",
      "type": "function"
    },
    {
      "inputs": [
        {
          "internalType": "address",
          "name": "operator",
          "type": "address"
        },
        {
          "internalType": "bool",
          "name": "approved",
          "type": "bool"
        }
      ],
      "name": "setApprovalForAll",
      "outputs": [],
      "stateMutability": "nonpayable",
      "type": "function"
    },
    {
      "inputs": [
        {
          "internalType": "uint256",
          "name": "badgeId",
          "type": "uint256"
        },
        {
          "internalType": "string",
          "name": "_uri",
          "type": "string"
        }
      ],
      "name": "setBadgeURI",
      "outputs": [],
      "stateMutability": "nonpayable",
      "type": "function"
    },
    {
      "inputs": [
        {
          "internalType": "address",
          "name": "minter",
          "type": "address"
        },
        {
          "internalType": "bool",
          "name": "authorized",
          "type": "bool"
        }
      ],
      "name": "setMinter",
      "outputs": [],
      "stateMutability": "nonpayable",
      "type": "function"
    },
    {
      "inputs": [
        {
          "internalType": "bytes4",
          "name": "interfaceId",
          "type": "bytes4"
        }
      ],
      "name": "supportsInterface",
      "outputs": [
        {
          "internalType": "bool",
          "name": "",
          "type": "bool"
        }
      ],
      "stateMutability": "view",
      "type": "function"
    },
    {
      "inputs": [
        {
          "internalType": "address",
          "name": "newOwner",
          "type": "address"
        }
      ],
      "name": "transferOwnership",
      "outputs": [],
      "stateMutability": "nonpayable",
      "type": "function"
    },
    {
      "inputs": [
        {
          "internalType": "uint256",
          "name": "badgeId",
          "type": "uint256"
        }
      ],
      "name": "uri",
      "outputs": [
        {
          "internalType": "string",
          "name": "",
          "type": "string"
        }
      ],
      "stateMutability": "view",
      "type": "function"
    }
  ],
  "bytecode": "0x608060405234801562000010575f80fd5b5060405162001f8538038062001f85833981016040819052620000339162000116565b8082620000408162000083565b506001600160a01b0381166200006f57604051631e4fbdf760e01b81525f600482015260240160405180910390fd5b6200007a8162000095565b5050506200034d565b600262000091828262000281565b5050565b600380546001600160a01b038381166001600160a01b0319831681179093556040519116919082907f8be0079c531659141344cd1fd0a4f28419497f9722a3daafe3b4186f6b6457e0905f90a35050565b634e487b7160e01b5f52604160045260245ffd5b80516001600160a01b038116811462000111575f80fd5b919050565b5f806040838503121562000128575f80fd5b82516001600160401b03808211156200013f575f80fd5b818501915085601f83011262000153575f80fd5b815181811115620001685762000168620000e6565b604051601f8201601f19908116603f01168101908382118183101715620001935762000193620000e6565b81604052828152602093508884848701011115620001af575f80fd5b5f91505b82821015620001d25784820184015181830185015290830190620001b3565b5f848483010152809650505050620001ec818601620000fa565b925050509250929050565b600181811c908216806200020c57607f821691505b6020821081036200022b57634e487b7160e01b5f52602260045260245ffd5b50919050565b601f8211156200027c57805f5260205f20601f840160051c81016020851015620002585750805b601f840160051c820191505b8181101562000279575f815560010162000264565b50505b505050565b81516001600160401b038111156200029d576200029d620000e6565b620002b581620002ae8454620001f7565b8462000231565b602080601f831160018114620002eb575f8415620002d35750858301515b5f19600386901b1c1916600185901b17855562000345565b5f85815260208120601f198616915b828110156200031b57888601518255948401946001909101908401620002fa565b50858210156200033957878501515f19600388901b60f8161c191681555b505060018460011b0185555b505050505050565b611c2a806200035b5f395ff3fe608060405234801561000f575f80fd5b5060043610610110575f3560e01c80638da5cb5b1161009e578063e985e9c51161006e578063e985e9c514610261578063ee068bf61461029c578063f242432a146102af578063f2fde38b146102c2578063f46eccc4146102d5575f80fd5b80638da5cb5b146101f3578063a22cb4651461020e578063b293109614610221578063cf456ae71461024e575f80fd5b8063366eb3a0116100e4578063366eb3a0146101925780634e1273f4146101a557806365fb1ee2146101c5578063715018a6146101d857806374afd802146101e0575f80fd5b8062fdd58e1461011457806301ffc9a71461013a5780630e89341c1461015d5780632eb2c2d61461017d575b5f80fd5b6101276101223660046112f2565b6102f7565b6040519081526020015b60405180910390f35b61014d61014836600461132f565b61031e565b6040519015158152602001610131565b61017061016b36600461134a565b61036d565b60405161013191906113a4565b61019061018b3660046114f3565b610427565b005b6101906101a03660046115dc565b610446565b6101b86101b336600461166e565b610714565b6040516101319190611761565b6101906101d33660046117b0565b6107de565b610190610804565b6101906101ee3660046117f7565b610817565b6003546040516001600160a01b039091168152602001610131565b61019061021c36600461184c565b610980565b61014d61022f3660046112f2565b600660209081525f928352604080842090915290825290205460ff1681565b61019061025c36600461184c565b61098f565b61014d61026f366004611885565b6001600160a01b039182165f90815260016020908152604080832093909416825291909152205460ff1690565b6101706102aa36600461134a565b6109f5565b6101906102bd3660046118b6565b610a8c565b6101906102d0366004611915565b610aa2565b61014d6102e3366004611915565b60046020525f908152604090205460ff1681565b5f818152602081815260408083206001600160a01b03861684529091529020545b92915050565b5f6001600160e01b03198216636cdb3d1360e11b148061034e57506001600160e01b031982166303a24d0760e21b145b8061031857506301ffc9a760e01b6001600160e01b0319831614610318565b5f8181526005602052604081208054606092919061038a9061192e565b80601f01602080910402602001604051908101604052809291908181526020018280546103b69061192e565b80156104015780601f106103d857610100808354040283529160200191610401565b820191905f5260205f20905b8154815290600101906020018083116103e457829003601f168201915b505050505090505f815111156104175792915050565b61042083610adf565b9392505050565b610432335b86610b71565b61043f8585858585610be9565b5050505050565b335f9081526004602052604090205460ff168061046d57506003546001600160a01b031633145b6104b65760405162461bcd60e51b81526020600482015260156024820152742737ba1030baba3437b934bd32b21036b4b73a32b960591b60448201526064015b60405180910390fd5b8483146104f75760405162461bcd60e51b815260206004820152600f60248201526e098cadccee8d040dad2e6dac2e8c6d608b1b60448201526064016104ad565b5f5b8581101561070b5760065f88888481811061051657610516611966565b905060200201602081019061052b9190611915565b6001600160a01b03166001600160a01b031681526020019081526020015f205f86868481811061055d5761055d611966565b602090810292909201358352508101919091526040015f205460ff1661070357600160065f89898581811061059457610594611966565b90506020020160208101906105a99190611915565b6001600160a01b03166001600160a01b031681526020019081526020015f205f8787858181106105db576105db611966565b9050602002013581526020019081526020015f205f6101000a81548160ff02191690831515021790555061065e87878381811061061a5761061a611966565b905060200201602081019061062f9190611915565b86868481811061064157610641611966565b90506020020135600160405180602001604052805f815250610c49565b84848281811061067057610670611966565b9050602002013587878381811061068957610689611966565b905060200201602081019061069e9190611915565b6001600160a01b03167f89e5dda43a1fcf4fa5bd7fcb9f9c0c044d87a05db38250c53d3070b209b7b1398585858181106106da576106da611966565b90506020028101906106ec919061197a565b6040516106fa9291906119bc565b60405180910390a35b6001016104f9565b50505050505050565b606081518351146107455781518351604051635b05999160e01b8152600481019290925260248201526044016104ad565b5f83516001600160401b0381111561075f5761075f6113b6565b604051908082528060200260200182016040528015610788578160200160208202803683370190505b5090505f5b84518110156107d6576020808202860101516107b1906020808402870101516102f7565b8282815181106107c3576107c3611966565b602090810291909101015260010161078d565b509392505050565b6107e6610cad565b5f8381526005602052604090206107fe828483611a33565b50505050565b61080c610cad565b6108155f610cda565b565b335f9081526004602052604090205460ff168061083e57506003546001600160a01b031633145b6108825760405162461bcd60e51b81526020600482015260156024820152742737ba1030baba3437b934bd32b21036b4b73a32b960591b60448201526064016104ad565b6001600160a01b0384165f90815260066020908152604080832086845290915290205460ff16156108ed5760405162461bcd60e51b815260206004820152601560248201527410985919d948185b1c9958591e4818db185a5b5959605a1b60448201526064016104ad565b6001600160a01b0384165f9081526006602090815260408083208684528252808320805460ff191660019081179091558151928301909152918152610936918691869190610c49565b82846001600160a01b03167f89e5dda43a1fcf4fa5bd7fcb9f9c0c044d87a05db38250c53d3070b209b7b13984846040516109729291906119bc565b60405180910390a350505050565b61098b338383610d2b565b5050565b610997610cad565b6001600160a01b0382165f81815260046020908152604091829020805460ff191685151590811790915591519182527fb21afb9ce9be0a676f8f317ff0ca072fb89a4f8ce2d1b6fe80f8755c14f1cb19910160405180910390a25050565b60056020525f908152604090208054610a0d9061192e565b80601f0160208091040260200160405190810160405280929190818152602001828054610a399061192e565b8015610a845780601f10610a5b57610100808354040283529160200191610a84565b820191905f5260205f20905b815481529060010190602001808311610a6757829003601f168201915b505050505081565b610a953361042c565b61043f8585858585610de8565b610aaa610cad565b6001600160a01b038116610ad357604051631e4fbdf760e01b81525f60048201526024016104ad565b610adc81610cda565b50565b606060028054610aee9061192e565b80601f0160208091040260200160405190810160405280929190818152602001828054610b1a9061192e565b8015610b655780601f10610b3c57610100808354040283529160200191610b65565b820191905f5260205f20905b815481529060010190602001808311610b4857829003601f168201915b50505050509050919050565b816001600160a01b0316816001600160a01b031614158015610bb857506001600160a01b038082165f9081526001602090815260408083209386168352929052205460ff16155b1561098b5760405163711bec9160e11b81526001600160a01b038084166004830152821660248201526044016104ad565b6001600160a01b038416610c1257604051632bfa23e760e11b81525f60048201526024016104ad565b6001600160a01b038516610c3a57604051626a0d4560e21b81525f60048201526024016104ad565b61043f85858585856001610e68565b6001600160a01b038416610c7257604051632bfa23e760e11b81525f60048201526024016104ad565b60408051600180825260208201869052818301908152606082018590526080820190925290610ca55f8784848784610e68565b505050505050565b6003546001600160a01b031633146108155760405163118cdaa760e01b81523360048201526024016104ad565b600380546001600160a01b038381166001600160a01b0319831681179093556040519116919082907f8be0079c531659141344cd1fd0a4f28419497f9722a3daafe3b4186f6b6457e0905f90a35050565b6001600160a01b038316610d5457604051631f18c42760e11b81525f60048201526024016104ad565b6001600160a01b038216610d7c5760405162ced3e160e81b81525f60048201526024016104ad565b6001600160a01b038381165f81815260016020908152604080832094871680845294825291829020805460ff191686151590811790915591519182527f17307eab39ab6107e8899845ad3d59bd9653f200f220920489ca2b5937696c31910160405180910390a3505050565b6001600160a01b038416610e1157604051632bfa23e760e11b81525f60048201526024016104ad565b6001600160a01b038516610e3957604051626a0d4560e21b81525f60048201526024016104ad565b6040805160018082526020820186905281830190815260608201859052608082019092529061070b87878484875f5b610e7486868686610ec0565b6001600160a01b03851615610ca557338115610e9d57610e988188888888886110cf565b61070b565b60208581015190850151610eb5838a8a85858a6111f0565b505050505050505050565b8051825114610eef5781518151604051635b05999160e01b8152600481019290925260248201526044016104ad565b335f5b8351811015610ff1576020818102858101820151908501909101516001600160a01b03881615610fa3575f828152602081815260408083206001600160a01b038c16845290915290205481811015610f7d576040516303dee4c560e01b81526001600160a01b038a1660048201526024810182905260448101839052606481018490526084016104ad565b5f838152602081815260408083206001600160a01b038d16845290915290209082900390555b6001600160a01b03871615610fe7575f828152602081815260408083206001600160a01b038b16845290915281208054839290610fe1908490611aec565b90915550505b5050600101610ef2565b5082516001036110715760208301515f906020840151909150856001600160a01b0316876001600160a01b0316846001600160a01b03167fc3d58168c5ae7397731d063d5bbf3d657854427343f4c083240f7aacaa2d0f628585604051611062929190918252602082015260400190565b60405180910390a4505061043f565b836001600160a01b0316856001600160a01b0316826001600160a01b03167f4a39dc06d4c0dbc64b70af90fd698a233a518aa5d07e595d983b8c0526c8f7fb86866040516110c0929190611b0b565b60405180910390a45050505050565b6001600160a01b0384163b15610ca55760405163bc197c8160e01b81526001600160a01b0385169063bc197c81906111139089908990889088908890600401611b38565b6020604051808303815f875af192505050801561114d575060408051601f3d908101601f1916820190925261114a91810190611b95565b60015b6111b4573d80801561117a576040519150601f19603f3d011682016040523d82523d5f602084013e61117f565b606091505b5080515f036111ac57604051632bfa23e760e11b81526001600160a01b03861660048201526024016104ad565b805160208201fd5b6001600160e01b0319811663bc197c8160e01b1461070b57604051632bfa23e760e11b81526001600160a01b03861660048201526024016104ad565b6001600160a01b0384163b15610ca55760405163f23a6e6160e01b81526001600160a01b0385169063f23a6e61906112349089908990889088908890600401611bb0565b6020604051808303815f875af192505050801561126e575060408051601f3d908101601f1916820190925261126b91810190611b95565b60015b61129b573d80801561117a576040519150601f19603f3d011682016040523d82523d5f602084013e61117f565b6001600160e01b0319811663f23a6e6160e01b1461070b57604051632bfa23e760e11b81526001600160a01b03861660048201526024016104ad565b80356001600160a01b03811681146112ed575f80fd5b919050565b5f8060408385031215611303575f80fd5b61130c836112d7565b946020939093013593505050565b6001600160e01b031981168114610adc575f80fd5b5f6020828403121561133f575f80fd5b81356104208161131a565b5f6020828403121561135a575f80fd5b5035919050565b5f81518084525f5b8181101561138557602081850181015186830182015201611369565b505f602082860101526020601f19601f83011685010191505092915050565b602081525f6104206020830184611361565b634e487b7160e01b5f52604160045260245ffd5b604051601f8201601f191681016001600160401b03811182821017156113f2576113f26113b6565b604052919050565b5f6001600160401b03821115611412576114126113b6565b5060051b60200190565b5f82601f83011261142b575f80fd5b8135602061144061143b836113fa565b6113ca565b8083825260208201915060208460051b870101935086841115611461575f80fd5b602086015b8481101561147d5780358352918301918301611466565b509695505050505050565b5f82601f830112611497575f80fd5b81356001600160401b038111156114b0576114b06113b6565b6114c3601f8201601f19166020016113ca565b8181528460208386010111156114d7575f80fd5b816020850160208301375f918101602001919091529392505050565b5f805f805f60a08688031215611507575f80fd5b611510866112d7565b945061151e602087016112d7565b935060408601356001600160401b0380821115611539575f80fd5b61154589838a0161141c565b9450606088013591508082111561155a575f80fd5b61156689838a0161141c565b9350608088013591508082111561157b575f80fd5b5061158888828901611488565b9150509295509295909350565b5f8083601f8401126115a5575f80fd5b5081356001600160401b038111156115bb575f80fd5b6020830191508360208260051b85010111156115d5575f80fd5b9250929050565b5f805f805f80606087890312156115f1575f80fd5b86356001600160401b0380821115611607575f80fd5b6116138a838b01611595565b9098509650602089013591508082111561162b575f80fd5b6116378a838b01611595565b9096509450604089013591508082111561164f575f80fd5b5061165c89828a01611595565b979a9699509497509295939492505050565b5f806040838503121561167f575f80fd5b82356001600160401b0380821115611695575f80fd5b818501915085601f8301126116a8575f80fd5b813560206116b861143b836113fa565b82815260059290921b840181019181810190898411156116d6575f80fd5b948201945b838610156116fb576116ec866112d7565b825294820194908201906116db565b96505086013592505080821115611710575f80fd5b5061171d8582860161141c565b9150509250929050565b5f815180845260208085019450602084015f5b838110156117565781518752958201959082019060010161173a565b509495945050505050565b602081525f6104206020830184611727565b5f8083601f840112611783575f80fd5b5081356001600160401b03811115611799575f80fd5b6020830191508360208285010111156115d5575f80fd5b5f805f604084860312156117c2575f80fd5b8335925060208401356001600160401b038111156117de575f80fd5b6117ea86828701611773565b9497909650939450505050565b5f805f806060858703121561180a575f80fd5b611813856112d7565b93506020850135925060408501356001600160401b03811115611834575f80fd5b61184087828801611773565b95989497509550505050565b5f806040838503121561185d575f80fd5b611866836112d7565b91506020830135801515811461187a575f80fd5b809150509250929050565b5f8060408385031215611896575f80fd5b61189f836112d7565b91506118ad602084016112d7565b90509250929050565b5f805f805f60a086880312156118ca575f80fd5b6118d3866112d7565b94506118e1602087016112d7565b9350604086013592506060860135915060808601356001600160401b03811115611909575f80fd5b61158888828901611488565b5f60208284031215611925575f80fd5b610420826112d7565b600181811c9082168061194257607f821691505b60208210810361196057634e487b7160e01b5f52602260045260245ffd5b50919050565b634e487b7160e01b5f52603260045260245ffd5b5f808335601e1984360301811261198f575f80fd5b8301803591506001600160401b038211156119a8575f80fd5b6020019150368190038213156115d5575f80fd5b60208152816020820152818360408301375f818301604090810191909152601f909201601f19160101919050565b601f821115611a2e57805f5260205f20601f840160051c81016020851015611a0f5750805b601f840160051c820191505b8181101561043f575f8155600101611a1b565b505050565b6001600160401b03831115611a4a57611a4a6113b6565b611a5e83611a58835461192e565b836119ea565b5f601f841160018114611a8f575f8515611a785750838201355b5f19600387901b1c1916600186901b17835561043f565b5f83815260208120601f198716915b82811015611abe5786850135825560209485019460019092019101611a9e565b5086821015611ada575f1960f88860031b161c19848701351681555b505060018560011b0183555050505050565b8082018082111561031857634e487b7160e01b5f52601160045260245ffd5b604081525f611b1d6040830185611727565b8281036020840152611b2f8185611727565b95945050505050565b6001600160a01b0386811682528516602082015260a0604082018190525f90611b6390830186611727565b8281036060840152611b758186611727565b90508281036080840152611b898185611361565b98975050505050505050565b5f60208284031215611ba5575f80fd5b81516104208161131a565b6001600160a01b03868116825285166020820152604081018490526060810183905260a0608082018190525f90611be990830184611361565b97965050505050505056fea264697066735822122081357526be7a9ebf6d6b657803f6a3ad87cc284695d6cd38afc1067e5c1f710764736f6c63430008180033",
  "linkReferences": {},
  "deployedLinkReferences": {}
}